:020000040000fa
:080000000002040000000000f2
:020000040000fa
:0400080010030000e1
:020000040000fa
:04000c0010030000dd
:020000040000fa
:0400100010030000d9
:020000040000fa
:0400140010030000d5
:020000040000fa
:0400180010030000d1
:020000040000fa
:04001c0010030000cd
:020000040000fa
:0400200010030000c9
:020000040000fa
:0400240010030000c5
:020000040000fa
:0400280010030000c1
:020000040000fa
:04002c0010030000bd
:020000040000fa
:0400300010030000b9
:020000040000fa
:0400340010030000b5
:020000040000fa
:0400380010030000b1
:020000040000fa
:04003c0010030000ad
:020000040000fa
:0400400010030000a9
:020000040000fa
:0400440010030000a5
:020000040000fa
:0400480010030000a1
:020000040000fa
:04004c00100300009d
:020000040000fa
:040050001003000099
:020000040000fa
:04005400c8020000de
:020000040000fa
:04005800ec020000b6
:020000040000fa
:04005c00100300008d
:020000040000fa
:040060001003000089
:020000040000fa
:040064001003000085
:020000040000fa
:040068001003000081
:020000040000fa
:04006c00100300007d
:020000040000fa
:040070001003000079
:020000040000fa
:040074001003000075
:020000040000fa
:040078001003000071
:020000040000fa
:04007c00100300006d
:020000040000fa
:040080001003000069
:020000040000fa
:040084001003000065
:020000040000fa
:040088001003000061
:020000040000fa
:04008c00100300005d
:020000040000fa
:040090001003000059
:020000040000fa
:040094001003000055
:020000040000fa
:040098001003000051
:020000040000fa
:04009c00100300004d
:020000040000fa
:0400a0001003000049
:020000040000fa
:0400a4001003000045
:020000040000fa
:0400a8001003000041
:020000040000fa
:0400ac00100300003d
:020000040000fa
:0400b0001003000039
:020000040000fa
:0400b4001003000035
:020000040000fa
:0400b8001003000031
:020000040000fa
:0400bc00100300002d
:020000040000fa
:0400c0001003000029
:020000040000fa
:0400c4001003000025
:020000040000fa
:0400c8001003000021
:020000040000fa
:0400cc00100300001d
:020000040000fa
:0400d0001003000019
:020000040000fa
:0400d4001003000015
:020000040000fa
:0400d8001003000011
:020000040000fa
:0400dc00100300000d
:020000040000fa
:0400e0001003000009
:020000040000fa
:0400e4001003000005
:020000040000fa
:0400e8001003000001
:020000040000fa
:0400ec0010030000fd
:020000040000fa
:0400f00010030000f9
:020000040000fa
:0400f40010030000f5
:020000040000fa
:0400f80010030000f1
:020000040000fa
:0400fc0010030000ed
:020000040000fa
:0401000010030000e8
:020000040000fa
:0401040010030000e4
:020000040000fa
:0401080010030000e0
:020000040000fa
:04010c0010030000dc
:020000040000fa
:0401100010030000d8
:020000040000fa
:0401140010030000d4
:020000040000fa
:0401180010030000d0
:020000040000fa
:04011c0010030000cc
:020000040000fa
:0401200010030000c8
:020000040000fa
:0401240010030000c4
:020000040000fa
:0401280010030000c0
:020000040000fa
:04012c0010030000bc
:020000040000fa
:0401300010030000b8
:020000040000fa
:0401340010030000b4
:020000040000fa
:0401380010030000b0
:020000040000fa
:04013c0010030000ac
:020000040000fa
:0401400010030000a8
:020000040000fa
:0401440010030000a4
:020000040000fa
:0401480010030000a0
:020000040000fa
:04014c00100300009c
:020000040000fa
:040150001003000098
:020000040000fa
:040154001003000094
:020000040000fa
:040158001003000090
:020000040000fa
:04015c00100300008c
:020000040000fa
:040160001003000088
:020000040000fa
:040164001003000084
:020000040000fa
:0402080010030000df
:020000040000fa
:04020c0010030000db
:020000040000fa
:0402100010030000d7
:020000040000fa
:0402140010030000d3
:020000040000fa
:0402180010030000cf
:020000040000fa
:04021c0010030000cb
:020000040000fa
:0402200010030000c7
:020000040000fa
:0402240010030000c3
:020000040000fa
:0402280010030000bf
:020000040000fa
:04022c0010030000bb
:020000040000fa
:0402300010030000b7
:020000040000fa
:0402340010030000b3
:020000040000fa
:0402380010030000af
:020000040000fa
:04023c0010030000ab
:020000040000fa
:0402400010030000a7
:020000040000fa
:0402440010030000a3
:020000040000fa
:04024800100300009f
:020000040000fa
:04024c00100300009b
:020000040000fa
:040250001003000097
:020000040000fa
:04025400c8020000dc
:020000040000fa
:04025800ec020000b4
:020000040000fa
:04025c00100300008b
:020000040000fa
:040260001003000087
:020000040000fa
:040264001003000083
:020000040000fa
:04026800100300007f
:020000040000fa
:04026c00100300007b
:020000040000fa
:040270001003000077
:020000040000fa
:040274001003000073
:020000040000fa
:04027800100300006f
:020000040000fa
:04027c00100300006b
:020000040000fa
:040280001003000067
:020000040000fa
:040284001003000063
:020000040000fa
:04028800100300005f
:020000040000fa
:04028c00100300005b
:020000040000fa
:040290001003000057
:020000040000fa
:040294001003000053
:020000040000fa
:04029800100300004f
:020000040000fa
:04029c00100300004b
:020000040000fa
:0402a0001003000047
:020000040000fa
:0402a4001003000043
:020000040000fa
:0402a800100300003f
:020000040000fa
:0402ac00100300003b
:020000040000fa
:0402b0001003000037
:020000040000fa
:0402b4001003000033
:020000040000fa
:0402b800100300002f
:020000040000fa
:0402bc00100300002b
:020000040000fa
:0402c0001003000027
:020000040000fa
:0402c4001003000023
:020000040000fa
:0402c800100300001f
:020000040000fa
:0402cc00100300001b
:020000040000fa
:0402d0001003000017
:020000040000fa
:0402d4001003000013
:020000040000fa
:0402d800100300000f
:020000040000fa
:0402dc00100300000b
:020000040000fa
:0402e0001003000007
:020000040000fa
:0402e4001003000003
:020000040000fa
:0402e80010030000ff
:020000040000fa
:0402ec0010030000fb
:020000040000fa
:0402f00010030000f7
:020000040000fa
:0402f40010030000f3
:020000040000fa
:0402f80010030000ef
:020000040000fa
:0402fc0010030000eb
:020000040000fa
:0403000010030000e6
:020000040000fa
:0403040010030000e2
:020000040000fa
:0403080010030000de
:020000040000fa
:04030c0010030000da
:020000040000fa
:0403100010030000d6
:020000040000fa
:0403140010030000d2
:020000040000fa
:0403180010030000ce
:020000040000fa
:04031c0010030000ca
:020000040000fa
:0403200010030000c6
:020000040000fa
:0403240010030000c2
:020000040000fa
:0403280010030000be
:020000040000fa
:04032c0010030000ba
:020000040000fa
:0403300010030000b6
:020000040000fa
:0403340010030000b2
:020000040000fa
:0403380010030000ae
:020000040000fa
:04033c0010030000aa
:020000040000fa
:0403400010030000a6
:020000040000fa
:0403440010030000a2
:020000040000fa
:04034800100300009e
:020000040000fa
:04034c00100300009a
:020000040000fa
:040350001003000096
:020000040000fa
:040354001003000092
:020000040000fa
:04035800100300008e
:020000040000fa
:04035c00100300008a
:020000040000fa
:040360001003000086
:020000040000fa
:040364001003000082
:020000040000fa
:100400004fda20000e7f24000e018800000000005b
:10041000000020000000e000020032000001200087
:1004200020028800140007007f0007000000e000a1
:1004300003003a00200026000100200002003700df
:100440000000200001002000810f70000100320038
:1004500014000700000020000000e000020032004d
:100460000000020000000000e6550200000000004d
:100470000040da000000fe004440a900a04d210029
:100480000000e0000300320000002000a00188000e
:100490004440a800000006008a1f78008b1f7800e7
:1004a0000000060091018800800478000000eb0045
:1004b0001a003700e284440032a0b4009905ba0063
:1004c000e284440032a0b4009906ba00e2844400f9
:1004d00032a0b4000006eb00476fde00fd07b2005b
:1004e000636ce10003003a00ebff07000000eb0043
:1004f0000a003700606ce10004003a00005deb0088
:100500008b05e900fdff3e00040037006168e10053
:10051000010032000086eb000b00070019c7ba008b
:100520001905ba000e04e00003003a000a00e000da
:10053000e0ff3a0000000600fe07b2009e018800be
:100540008a047800f5ff3700395dba008b05e900b1
:100550000c003200295dba008b05e900080032006a
:100560000c00e00003003a00e284440032a0b40032
:10057000f5ff370019ddba008b05e900faff3a00f4
:100580008904e800e184440032a0b40000000600c1
:100590003600f800809fbe00829fbe00849fbe0090
:1005a000869fbe000200fa0030118000004f7800e4
:1005b0001e4078004e2d07008560a9000080fa00db
:1005c0004f03be004f02be004f01be004f00be00f1
:1005d0003600f900004006003600f800809fbe009b
:1005e000829fbe00849fbe00869fbe000200fa006c
:1005f000aa2d0700004f78001e80fb002011880004
:100600008580a9000080fa004f03be004f02be00a3
:100610004f01be004f00be003600f900004006004a
:100620000040da000000fe00000005001400200079
:1006300084013700f4ff2f00820137004f89de006c
:10064000820178009a013700889fbe008a9fbe0011
:100650008c9fbe001b0020000202be0005866800c1
:1006600006002800060666004709de00f20fb20009
:10067000820032000243e80080003200c729de0019
:10068000f30fb2007d0032000343e8007b0032002c
:10069000f107b2000170a000f507b2000570a000dc
:1006a000c708dd004903de00868070004700dd00da
:1006b000c72add004923de00868272004722dd0062
:1006c00003055100040350008583580003003100e6
:1006d00000004000818048000a05e9008c1f780076
:1006e0008a9fbe000400500085805800040242002a
:1006f00085824a0000004000818048000005eb0030
:100700000004be006033b8000406be000d48e100de
:1007100056003100110009004dccd8000c01b80082
:100720000d02b8008481410060824a008283530038
:1007300003045c0084845c0060055d000a00e00046
:1007400025003a00800578000d40e10049003100a5
:100750008800780007007800110009004d88d80053
:100760000c01b8000d02b8008481410060824a008b
:100770006003110083835b0004045c00e0845c0080
:100780000900e00021003a004f01be000300e00034
:100790002b003200e3016000070673008c817100ba
:1007a00001003200640070004200de004e5edd0099
:1007b0000c007000c258de0001e0a0009b000700a2
:1007c000cf017800818071004f06be004f05be004a
:1007d0004f04be00000006008c8343000d044c0053
:1007e000e0844c0060054d000000e9000a00e000d4
:1007f000d4ff32008c8343000d044c00e0844c0095
:1008000060054d000000e900ceff37000c034300f7
:100810008d834b0060044c00e0844c000000e90034
:100820000900e000d8ff32000c0343008d834b0029
:1008300060044c00e0844c000000e900d2ff370067
:100840004200de004e5edd000c007000c258de008b
:1008500001e0a000cf0178000300e000daff3200e1
:1008600060001000e0801800d7ff3700f0ff2f0075
:10087000aaff3700f0ff2f00b9ff37000404be00c5
:1008800050000700870678000004fd008104fd0089
:100890004c000700078366000678a30003003200bf
:1008a0000960a7000800be002c0037000d78a300e7
:1008b000020032000800be00280037000778a300bd
:1008c00026003a0001f0a10009f0a1000668a3008b
:1008d00003003200f1ff2700f0ff2f00baff3700be
:1008e0000d68a300030032000800be008c80700079
:1008f000b5ff37000768a30007003a000648a300c9
:1009000003003200f1ff2700f0ff2f00aeff370099
:100910000d48a300030032006000b8008c80700016
:10092000a9ff37000748a3000400320001f82700a0
:10093000000020008c807000a3ff37008e000700ad
:100940000004fd008104fd00020578008a00070014
:100950000802be008a01780059ff37000160a0003c
:10096000120220002240880097ff37000100e000bb
:10097000120032000500e00010003200889fbe0027
:100980008a9fbe008c9fbe000006eb0001f8a3000a
:100990000300320060001000e08018000cf0a0009e
:1009a00005f8a3000300320060021200e0821a0082
:1009b0000cf0a2008005eb0041ff37006000b8009a
:1009c000020005002700200001f0a700170020000a
:1009d000470bde00f60fb200040032000643e800c9
:1009e0000a0032004702b30000000600010378004d
:1009f000f607b2000603700002003a000703b300d6
:100a0000000006008702b300000006000103780022
:100a1000f607b20006037000020032000770a00063
:100a2000000006000760a0000000060081017000c1
:100a3000270032008002eb0001f8a300030032001f
:100a400060001000e080180015002000f40720006e
:100a50000202420020003400f703200087036000f8
:100a6000060420000003630002082000000161006a
:100a70004700de00c909dd0000807100c708de0004
:100a80000600e00008003200870371000600320013
:100a90001000b0000180b0000188a3000200320005
:100aa000c108de000402e800f107b200f30f2000e5
:100ab0000320e10003003d004722dd0081007200b9
:100ac0002900370001f827000000eb00260037005e
:100ad0006000b80000000600680212007f20e100fc
:100ae000020034006000b8001f0037006011b80039
:100af0007020e100040035008001780001007800da
:100b00008000eb00700252000400e0000900340095
:100b1000f00312000719dd008419de000703dd0071
:100b2000868171000400de00070bdd000600700006
:100b30008408de00f7ff27008383630087037100ca
:100b40000600280003036300070032000700e000ee
:100b500003003a006101600002817300020032006c
:100b60001000b0000180b0000500a60000000600e3
:100b700001f0a000000006004f0ade004709de0079
:100b8000f107b200f20fb2000b003200f207b10021
:100b90000170a000c708dd00c901de00838070007d
:100ba0004700dd000400a600000006006000100001
:100bb000e080180000000600810f700001003a007c
:100bc000000006008182cf000500e00010003e001a
:100bd0008082cf00ee8242007028e10004003900dc
:100be00007003e00800078000000eb000e00370098
:100bf000708312008600de000500dd000a00370069
:100c0000708352008600dd000000eb000600370014
:100c1000e28252008508dd00708312000603de00c8
:100c2000868070000500dd007507b0000501ea0050
:100c30000400a6000000060060001000e08018001c
:100c400000000600889fbe008a9fbe00841f7800b7
:100c50007c0007004f00780011003300f0ff2f00e8
:100c6000838f6c0006003b00040565000a00a700a6
:100c70000800370009f0a600100020000800370027
:100c8000820f5400838f5c000300390010002000a5
:100c900001003e000000200009f0a7000000ea006b
:100ca0004f05be004f04be000000e000000006003b
:100cb000881f7800030478000300e00007003d006f
:100cc00060001000e080180060011900e081190048
:100cd00002003b0001f02d00030037000400070074
:100ce00008f0a70001f0a0004f0478000000060003
:100cf000889fbe008a9fbe000082700004027100bf
:100d000004827100260032000004be000200be0012
:100d10006011b8006b092000950220000182cf000d
:100d20000a0039000541b1000082cf0007003900f8
:100d30000541b1000982cf00040039000541b1002e
:100d40000882cf00010039000541b1000542520080
:100d5000120032000a003b008281710061016400d0
:100d60008100d1000080d3008984d3000884d3009f
:100d70008b05e8000442e800f7ff3a00070037005f
:100d80000804440089844c00000048008180480029
:100d90008b05e9000442e900f9ff3a00030007006f
:100da0004f05be004f04be00000006008100200079
:100db000618055000b003d000b00200061fe2f00fc
:100dc0000100e1001d0034008281710061016400b6
:100dd0008904d1000884d3000000e800faff3a003b
:100de00071002000610064000300700002006000d8
:100df0000900320061044400e0844c000988a50029
:100e0000050032008b05e8006808e10002003a00a6
:100e10008904d1000884d300f20f20000258e100b9
:100e200005003d00c75ddd00f907b200898075004f
:100e300008007800000006000bf827008b007800ff
:100e4000000005000004be00060007000003be000d
:100e50000405be000200be0002000700844f7500ba
:100e600000000600c70ade00f107b200f50fb2006d
:100e700008003200e1cf4200020032000170a00001
:100e800024000500810f70000100320004080500f5
:100e900044000500810f700002003a0014000500b4
:100ea0008502e9000000400081c04800fcff3b00d3
:100eb0000170a000240005000000fa004fb997005f
:100ec000e8815700a60207000080fa000000060033
:100ed00001003700000006008f04b000889fbe00ac
:100ee0008a9fbe008c9fbe008e1f7800809f9f004f
:100ef000f19f9f00c3779f0001007800b000780049
:100f0000e1a79f0010007800d0b79f00ff999700dd
:100f1000a3019000d3a79f007f9a970044029000fe
:100f2000f4979f00ff9a9700b50690003204be0028
:100f30002205be006022b8006033b8000800be0081
:100f40000a01be00651007000000e00003003d003c
:100f50000bf0a200d0c2b300040037006fa39700cb
:100f60000628a30008003200b0c2b300804e78000b
:100f7000dfa397008703e900c7af9f0010002000a0
:100f8000f0a79f000f003700efa097000138a300e3
:100f90000800320000c2b300804e78005fa19700c5
:100fa0000201e900c2af9f0013002000f3a79f00d9
:100fb000040037005fa29700c4af9f008002eb00df
:100fc000f5a79f000800be000a01be00c1ff070090
:100fd000f4ff2f00f5ff2f00f6ff2f00f7ff27008b
:100fe000040260008582600006036100878361005f
:100ff0006000b8000200200003ff27000020e1008d
:1010000001a8e10002b0e10003b8e10010003a00dd
:101010004f7397008600fb001104b100ffa39700f7
:1010200007804600f98f500002003e0001d92000e1
:101030000100370041d92000480f070040d92000a7
:10104000bd040700ffa09700010140001400370015
:101050000020e10001a8e10002b0e10003b8e100d6
:10106000120036004f7197008200fb001104b1009e
:10107000ffa1970003804600f98f500002003e0058
:1010800081d9200001003700c1d92000330f0700ab
:10109000c0d92000a80407007fa2970004014000e7
:1010a0006fa29700dfa19700190237006022b800f5
:1010b0006033b8000800be000a01be000710070038
:1010c0000000e000680032006000b800020020006c
:1010d00003ff230080af9f0091af9f00a2af9f004e
:1010e000b3af9f000007eb000802be000a03be007a
:1010f000d4af9f00e5af9f00f6af9f0087b79f007a
:10110000070037000e07e8000800be000a01be0015
:1011100080af9f0091af9f00a2af9f00b3af9f0031
:101120006022b80006002000470224000fa89700a4
:101130009fa897002fa99700bfa9970099110700b2
:101140000004be000205be000002be000203be0095
:101150005fa89700efa897007fa997008fb197002d
:10116000de0f07000000e000e6ff3d000006eb0098
:101170000fac97009fac97002fad9700bfad9700c5
:101180002500370040ed2f00800f570019003d006b
:101190000c00e00016003a006022b80006002000b3
:1011a000073524005fa89700efa897007fa9970054
:1011b0008fb197007b1107000002be000203be0042
:1011c000d4af9f00e5af9f00f6af9f0087b79f00a9
:1011d0006022b80006002000073524000800be0089
:1011e0000a01be006f1107000004be000205be0028
:1011f0001c0020006022b8000600200047022400e6
:101200000800be000a01be00b71007000004be00bf
:101210000205be000e07e9000802be000a03be0078
:101220005fa89700efa897007fa997008fb197005c
:10123000aa0f07000000e000d2ff35000800be0042
:101240000a01be0080af9f0091af9f00a2af9f0038
:10125000b3af9f005fac9700efac97007fad9700f6
:101260008fb59700080037006022b8000600200004
:1012700007ff230084af9f0095af9f00a6af9f009c
:10128000b7af9f000007eb00cf7297000500fb008f
:10129000b90e0700d0779f005fb397006000200071
:1012a0000600e000010035005fb0970071c6b30092
:1012b000df73970081cf53000a003a00dfb0970038
:1012c0000100e0009b0132009b0137008e0f5000af
:1012d0009f013c00d0af9f0052c6b30082cf9f0059
:1012e0001e003700df71970083cf9f000200370098
:1012f00064c6b30084cf9f000000e800d0af9f0019
:1013000060c6b3008fca970080cf520013003a0026
:101310000e00e00008003d006000b8000200200060
:1013200003ff230080af9f0091af9f00a2af9f00fb
:10133000b3af9f000007eb0061c6b30081cf9f00f1
:1013400070c6b3005f719700804f510003003200f8
:10135000dfa997008e814100d3af9f000faa9700ad
:101360009faa97002fab9700bfab970094b79f0041
:10137000a5b79f00b6b79f00c7b79f000800be0083
:101380000a01be00d0b79f00e1b79f00f2b79f00ef
:1013900083bf9f000006eb000802be000a03be00e8
:1013a000b49f9f00c59f9f00d69f9f00e79f9f000f
:1013b000310037001fb29700afb297003fb39700dc
:1013c000cfb397005fb09700efb097007fb1970061
:1013d0008fb9970044100700661507000004be008f
:1013e0000205be007a0f07008002780085a79f00e3
:1013f0001fb29700afb297003fb39700cfb39700eb
:101400000800be000a01be00e61007005fb29700a8
:10141000efb297007fb397008fbb9700e10f0700f3
:101420000002be000203be0007f0a200d4b79f0076
:10143000e5b79f00f6b79f0087bf9f006022b80006
:1014400006002000470224001fb09700afb09700ad
:101450003fb19700cfb19700231007000002be00f4
:101460000203be0094b79f00a5b79f00b6b79f00c8
:10147000c7b79f000c06e800dfaa9700850f56004b
:10148000ccff35003f9c9700cf9c97005f9d970055
:10149000ef9d97006022b80006002000470124005d
:1014a0001fb09700afb097003fb19700cfb1970042
:1014b000bc1007000002be000203be0094b79f00ec
:1014c000a5b79f00b6b79f00c7b79f005fb0970052
:1014d000efb097007fb197008fb99700ff0e07001c
:1014e0000000e0000f0035001fb29700afb2970078
:1014f0003fb39700cfb397005fb09700efb097006e
:101500007fb197008fb99700f40e07000000e0004c
:1015100011003a008fa297000508a30008003200ce
:101520000d0037006000b8006011b80090b79f0050
:10153000a1b79f00b2b79f00c3b79f000600370056
:101540006022b8006033b80094b79f00a5b79f0031
:10155000b6b79f00c7b79f001fb29700afb2970002
:101560003fb39700cfb397000800be000a01be004a
:10157000920f07000002be000203be0084a79f0076
:1015800095a79f00a6a79f00b7a79f0050c6b300ce
:101590008fca970080cf520003003a000003eb008f
:1015a000d6b79f0001003700deb79f007fa69700e7
:1015b0000000eb0090b79f00909f9f00b09f9f009e
:1015c0008e007800e1979f00660037000faa970011
:1015d0009faa97002fab9700bfab97000fa0970073
:1015e0009fa097002fa19700bfa19700be0f0700f3
:1015f000e01407000004be000205be00f40e070060
:1016000000017800efa197000348a3000c003a0006
:101610000200e0000a003a0070c6b3005f72970053
:10162000804f520006003a00dfb297000500e0004c
:1016300003003d001fb397000607e80020003700b5
:101640009f9b97000700e0000b003a005fb09700f7
:101650000000e00008003d00e0c2b30080767e009c
:101660000c06e800cfa897008100e900c1af9f00f9
:1016700013002000939f9f008c8046001fb79700a7
:101680000300370000c3b300805878000e07e9005c
:101690000e00e000fbff3a001fb297000406460070
:1016a0000c80460005c3b300054841000c06e80065
:1016b0000480ea004fab970000034300c6af9f00d1
:1016c0000faa97009faa97002fab9700bfab970078
:1016d0000800be000a01be00321007000fa29700ea
:1016e0009fa297002fa39700bfa397002d0f07007d
:1016f0000002be000203be0007f0a20084a79f0004
:1017000095a79f00a6a79f00b7a79f006022b800db
:1017100006002000470224000fa897009fa897000a
:101720002fa99700bfa997006f0f07000002be0006
:101730000203be0084af9f0095af9f00a6af9f003d
:10174000b7af9f00dfb297008502e900d5b79f00d1
:101750003f9b97000603e800b69f9f008e0378002a
:1017600097b79f003f989700dfa89700810f500020
:1017700005003d007f9997004200900065005000f1
:10178000800f560091ff39006f9797009f9997003f
:101790000300e00006003a006fa297000448a3008f
:1017a00003003200e0c2b30080767e000c06e80041
:1017b0000c8046000048eb0051c6b3008fca97006a
:1017c00081cf520036003a007f9397008600e900ef
:1017d000018146000049eb008001eb000e00e000b3
:1017e00002003d000e07ea00130020002200200046
:1017f00081037800cfaa9700000478000b0037001f
:1018000081037800a4002000110009000407d8001b
:1018100001027800000778000783460000c3b30088
:10182000004b42000201e9008502e9008700e9005f
:101830000e00e000f2ff3a000200e000f0ff3c0082
:10184000c5af9f000800780001824600b2c2b30015
:101850000300e00001003200d2c2b300024a780067
:101860000101e90082804600cf7197000302fb006e
:101870001404b10053c6b300f90f520001003e003a
:1018800053c4b300834878004faa97000482e9004c
:10189000c4af9f00820f5600010031002f0d0700da
:1018a000efa2970063806200e20f500013003a003d
:1018b0004fab97000600e000100034000d007800e8
:1018c0009d02070004003700cfab970087804600d9
:1018d000ed7078000000e900ffa19700830f500031
:1018e000f9ff3100038046004fa997000103200053
:1018f0002e0207000002eb00d4a79f000d00780025
:101900008d0207006fa29700dfa197000001780009
:101910008d0078000f9897004a0007004f07780065
:101920004f06be004f05be004f04be008f04b1003d
:101930000000060010002000e40f470063fe3d0099
:10194000d0af9f0055c6b30085cf9f0083fe370000
:101950000e00e00066fe3500d0af9f0076fe370037
:10196000f28747008e1f780002027800030178009a
:101970000000e0000200320000077800010037009c
:10198000728757008002eb000100e0000100320086
:101990008102e90070805700060009000018eb0082
:1019a0007280570000a8eb002310200093bf9f0017
:1019b000aebf9f00b1bf9f00c5bf9f000100e00008
:1019c00004003d00b0042000106d88000080eb0092
:1019d00005003700004feb00eebf9f00debf9f0009
:1019e000840078006c0207004f0778002f01b100d7
:1019f00000000600889fbe008a1f780080047800df
:101a00004900900002047800800f54000100360065
:101a100000047800080178006a8544001a00780004
:101a2000db0107001a004400000d7800e884440040
:101a3000990c14000048eb004f0578004f04be00dd
:101a400000000600f2874700889fbe008a9fbe0004
:101a50008c9fbe008e1f78008004780001057800fe
:101a600002047800830578006107620002003a00f2
:101a70008b0f540008003900080178008a007800b4
:101a800009007800dbff07008b0f540002003900cb
:101a9000880578001e003700088655000c01780084
:101aa000f00f560001003600020120000102200064
:101ab0007e805700bd0107008c06780005003700c6
:101ac00002012000fe80570009007800c9ff0700ce
:101ad000f0865600ef8f5600f9ff3e004461de00ad
:101ae00000ff2f000091b90002014600fe80570060
:101af00009007800bfff07000e00e00004003a0074
:101b0000080178008a00780009007800b9ff070012
:101b10000b0078004f0778004f06be004f05be004f
:101b20004f04be002f01b1000000060000000500b8
:101b30000000050000000500000178000040eb00f7
:101b40008080fb0081804000a3d7200063c2780022
:101b50000404e00003003a00b0d7200060c0780021
:101b60000000060092017800934f520004003a00f2
:101b7000b0d7200060c078000309e80001003700fa
:101b80000040e800ea4f5000edff3600000006007c
:101b9000f6874700889fbe008a9fbe008c9fbe00cc
:101ba0008e1f780080047800010478008305780097
:101bb000040678000000eb00c0b79f008080eb00b7
:101bc000d1b79f00e0b79f00f2b79f000008200048
:101bd00080bf9f0098007800010078000005eb00ae
:101be000010037000a05e800304178000204e000f7
:101bf0000300320053c2b300834f5100f9ff3a0093
:101c00000a00e000040032000a01780009007800b0
:101c100078ff0700180c45001807780050c2b30081
:101c20009e4f100033013a000e07e8000e0c7800ba
:101c300010003700cfb097000100a0000b00370064
:101c4000cfb097000110a00008003700cfb0970078
:101c50000120a00005003700cfb097000130a000a0
:101c600002003700cfb097000140a000c1b79f002d
:101c7000000ce8001800780090407800b2c2b30071
:101c800082cf5000f1ff320007003c0002c2b300d7
:101c900082cf5000f0ff320032c2b30082cf50003a
:101ca00007003a00efff3700d2c2b30082cf5000e6
:101cb000e0ff320002c3b30082cf5000e0ff3200e9
:101cc000a2c2b30082cf50000d003a00000ce80021
:101cd0001c80e900000e780010007800e0b79f003b
:101ce0000000e0000f003d00cfb097000100a2000f
:101cf000c1b79f000000ea00e0b79f00090037006d
:101d0000f00b0700e0b79f0001003700000ce8006f
:101d1000180078009000fb000103b100e98f50002b
:101d2000faff36004fb097000008a300020032000f
:101d30000010a100c0b79f0018007800e1c2b300f6
:101d400090cf100016003a008000eb00d1b79f0042
:101d50000000e800000c7800a1c2b30090cf100092
:101d600006003a00000ce8001c80e900000e780034
:101d700010007800d0b79f0009003700d10b070092
:101d8000d0b79f0001003700000ce8001800780071
:101d90009000fb000103b100e98f5000faff36000c
:101da0000800780064ff070080467800180078007b
:101db0001000fb00f00b070091062000810f50007f
:101dc0003800320012003c0041062000810f500014
:101dd000340032000a003c0011062000810f500040
:101de0002000320031062000810f50009a0032009e
:101df00051022000810f5000ae003a00a7003700ca
:101e000071062000810f5000aa003c0082003700bc
:101e100001072000810f50005c00320007003c00e9
:101e2000e1062000810f500074003200f10620000e
:101e3000810f50009f003a00390037005107200001
:101e4000810f50002700320081072000810f5000d1
:101e50004200320031072000810f500095003a0007
:101e6000850037008d80fb000c01780000fe2f00fc
:101e70000f004000c70b07000000e0009c0032008c
:101e800018007800000ce8009041780002fe2f0056
:101e90000f014100f88057000900780024ff070077
:101ea0000e0037008d80fb008c01780012002000ae
:101eb00000fe2f000f004000d50b07000000e000df
:101ec0008b003200180ce80002fe2f000f014100c9
:101ed000f88057000900780014ff0700000545004e
:101ee000840037008d80fb008c0178000001eb003e
:101ef00000fe2f000f004000c50b07000000e000af
:101f00007b003200180ce80002fe2f000f01410098
:101f1000f88057000900780004ff0700efff370042
:101f20008d80fb008c0178000001eb0000fe2f008b
:101f30000f004000b60b07000000e0006c0032000c
:101f4000180ce80002fe2f000f014100f880570036
:101f500009007800f5fe0700e0ff37008d80fb00e8
:101f60008c0178000001eb0000fe2f000f00400004
:101f7000a70b07000000e0005d00320018007800a9
:101f8000000ce80090417800160037008c017800c2
:101f90000001eb00010f200000fe2f000f004000a9
:101fa0009b0b07000000e00051003200180ce80015
:101fb0000fb097009fb097002fb19700bfb1970067
:101fc000e00f5000e08f5800e00f5900e08f5900fb
:101fd00003003a008001eb0042d7200040003700a8
:101fe00083c7b30002fe2f000f014100f8805700a5
:101ff00009007800cefe0700b8ff37000b0145004e
:102000008d80fb008c01780000fe2f000f00400047
:10201000d80b0700360037008d80fb000c017800dc
:1020200000fe2f000f0040005a0b07000000e000e8
:102030002f00320018007800000ce8009041780072
:1020400002fe2f000f014100f880570009007800c0
:10205000a1fb0700a1ff370000c8b30080cf5600e6
:1020600023003a00180ce8001c80e900000e7800fc
:10207000104078000d00370000c8b30080cf560034
:102080001b003a00180ce8001c80e900000e7800e4
:102090008001eb00100178001100370001c8b30087
:1020a00081cf560012003a00180ce800e0df9f00d4
:1020b0000800370050c2b300e0df9f000e0c78002c
:1020c0000000eb00c0b79f00e0b79f008080eb00ee
:1020d000d1b79f0013002000e2fd2f000f01410047
:1020e000f88057000900780092fe07007bff370058
:1020f000180ce8000a0078004f0778004f06be0071
:102100004f05be004f04be006f01b1000000060085
:102110008200fa00889fbe008a1f780000057800c0
:1021200082047800c13f9f000004eb0010003700dc
:102130000902780088017800a2f72f000f01410002
:1021400081f72f008f8040000a00780090fe070082
:1021500008004000880f500004003d00b00420003b
:10216000106d88000084eb00040037000004780044
:102170004f3897001004e000edff3a0008007800a7
:102180004f0578004f04be000080fa0000000600f2
:102190008001780002003700b15978000201e9009f
:1021a0000200e000fcff3a0000000600889fbe002d
:1021b0008a9fbe00800478000200e0005a003200ce
:1021c00001407800814c780082814400f1f99f0041
:1021d000e20f51005400360091449800a144980049
:1021e000e1f99f00d1f99f00e60f51004e00360043
:1021f000b1449800c1f99f00e80f51004a00360031
:102200000905ea00630565000a8444000a055100d7
:10221000c1ff2f00010565000080fb008000eb007e
:102220001210200013102000580c0700008cbe0074
:102230000a01440060b99f0071b99f00e80f550082
:1022400039003600200498003104980040049800ba
:102250005104980020b99f0031b99f0040b99f00f8
:1022600051b99f00f80f55002f0036006004980008
:1022700071049800000c9800110c9800200c980034
:10228000310c9800400c9800510c980020b19f0030
:1022900031b19f0040b19f0051b19f0060b19f00dc
:1022a00071b19f0000b99f0011b99f0064016400e3
:1022b0007801410002044400020555006011b80095
:1022c0000203be000002be000403be006022b8008c
:1022d000000072008180720002017300838173002c
:1022e0000f00370008027800009abe00029abe0074
:1022f000009abe000292be00000c9800110c9800db
:10230000220c9800330c9800400c9800510c980057
:10231000620c9800730c98000a02b1000802b00029
:10232000ff0f5500efff3e00090078004f05be008b
:102330004f04be0000000600800078000400370053
:102340003104e00002003a000000510000000600e5
:10235000010178000108a300f9ff3a00810178002b
:1023600031017800f4ef2f00020242000281ea00fe
:10237000020162000408280004016100f7ff320036
:1023800083007800010178003104e000fdff3a008d
:1023900000005100000006000200fa00881f7800cb
:1023a00000047800e2bf9f006481570008007800b5
:1023b00057ff0700980090000148a3000100320079
:1023c0000080eb004f0478000080fa000000060057
:1023d0008000eb002f0037003c00fa00889fbe0011
:1023e0008a9fbe000004be00020578000f0078003e
:1023f0004004b1001d0009000018eb0088a79f00f1
:10240000d8af9f008085eb00ebaf9f006022b80043
:102410006033b800c0fb2f000f0040001b0907000d
:10242000120020008a007800c0fb2f000f0040003f
:10243000000807006fb29700ffb297000fbb97002c
:102440009fbb9700dfad97000fa597000900e00044
:10245000090032000a855500cfd5de000402450090
:1024600085824d0006834d0087834d0001003200b8
:1024700004044400880c78004f05be004f04be00e1
:102480000080fa00000006000001eb00d2ff070008
:10249000800b370012002000cfff07007d0b3700b4
:1024a00022002000ccff37008000780010002000c0
:1024b00002022000828f500004003200e9805000a8
:1024c000e48f5000010036000000eb000000060021
:1024d0000800fa00889fbe008a9fbe0000047800b2
:1024e00081057800fe00440011007800381190004a
:1024f000820f500003003100b084fb008008780098
:102500000300370008007800050907008004780000
:10251000b0022000808f5400040032000005eb0060
:10252000d0022000808f54001b003a00d982b200f4
:1025300009f0a7008904ea008904e9004f4dde0094
:10254000fe0044001100780038119000820f500006
:1025500003003100b084fb008008780003003700de
:1025600008007800ee0807008004780000fd2f00c6
:1025700009004000e90f5000070036000b00e000a2
:1025800005003200381090000000e0000200320028
:102590007e0044001008e90000fd2f000900400003
:1025a0008005eb00e90f5000130036003810900052
:1025b0000000e000740032007e044400180ce900c2
:1025c000710037006a59b90082054000fe004400de
:1025d0001100780038119000820f50000300310084
:1025e000b084fb0080087800030037000800780002
:1025f000cb0807008004780000fd2f000900400090
:10260000e90f500003003e00b1cc2000818f55003f
:10261000ecff3400615ab900612bb90084bf9f0000
:1026200095bf9f00a6bf9f00b7bf9f002000370047
:10263000a4002000050020006033b8000fb8970008
:102640009fb897002fb99700bfb99700591007009e
:10265000cfcdde000082440081824d0002834d0018
:1026600083834d000403b1000580b1000680b100f2
:102670000780b10084bf9f0095bf9f00a6bf9f0049
:10268000b7bf9f00fe004400110078003811900091
:10269000820f500003003100b084fb0080087800f6
:1026a00003003700080078009d08070080047800c8
:1026b00000fd2f0009004000e90f500018003e0007
:1026c000d07a240011ae270042e12a0073142000c2
:1026d0000fba97009fba97002fbb9700bfbb970018
:1026e0000020e10001a8e10002b0e10003b8e10030
:1026f000cfff34000a0037007e014400120078004a
:10270000910f500003003100b084fb0000097800f5
:102710000300370008007800810807008004780073
:102720000903b1006102200088804000e98f540055
:10273000f1ff36001100e000020032007e04440088
:10274000180ce9000a00e000160032006000b80032
:102750006011b8000fba97009fba97002fbb97007f
:10276000bfbb970004025000858258000603590041
:102770008783590084bf9f0095bf9f00a6bf9f001d
:10278000b7bf9f00070037006000b80002002000bc
:102790000300280080bf9f0091bf9f00a2bf9f0041
:1027a000b3bf9f000fb897009fb897002fb997004d
:1027b000bfb997004f05be004f04be000080fa006d
:1027c000000006000f04b000889fbe008a9fbe0074
:1027d0008c9fbe008e1f780000067800b1a79f0076
:1027e000c29f9f00a3a79f00b49f9f007e01460049
:1027f000920078003c109000808f5000040031005f
:102800003180fb00010978000007eb000e00370063
:102810000c00780042080700fbff37007e014600ed
:10282000920078003c109000808f5000030031002f
:102830003180fb0001097800020037000c007800ad
:10284000370807001e00200001032000810f500000
:10285000f2ff32006022b8006033b80094af9f00ee
:10286000a5af9f00b6af9f00c7af9f008002eb00ef
:1028700095a79f00e1022000810f500025003a003b
:102880007e014600920078003c109000808f50003e
:10289000050031003180fb00010978006044b80078
:1028a0006055b800120037000c0078001c080700c3
:1028b000faff37007e014600920078003c1090003d
:1028c000808f5000030031003180fb000109780047
:1028d000020037000c007800110807006104540062
:1028e000e0845c0060055d00e0855d001e00200066
:1028f00001032000810f5000eeff320098af9f00cf
:10290000a9af9f00baaf9f00cbaf9f00150020007a
:1029100095a79f006022b8006033b800d4af9f0035
:10292000e5af9f00f6af9f0087b79f008002eb00e6
:10293000a59f9f006022b8000600200007ff23002b
:10294000d49f9f00e59f9f00f69f9f0087a79f0051
:102950006044b8006055b8006033b800f6a79f0027
:1029600087af9f0085003700e1022000810f5000f3
:102970000e003a009fa397000700e0008c003a0089
:102980005fa89700efa897007fa997008fb19700e5
:1029900090af9f00a1af9f00b2af9f00c3af9f0059
:1029a0001100200091a79f006a00370091032000ca
:1029b000810f5000030034000050a0009dfa2f004a
:1029c0008086460070002000010020006011b800e1
:1029d0005faa9700efaa97007fab97008fb397008d
:1029e0000020e10001a8e10002b0e10003b8e1002d
:1029f0000c003c007fa397008fab97004438dd00ac
:102a0000cc30de00810070004430dd004feade0093
:102a10000081460081014a00f2a79f0083af9f001a
:102a20003f003700d0002000010020006011b800f6
:102a30005faa9700efaa97007fab97008fb397002c
:102a40000020e10001a8e10002b0e10003b8e100cc
:102a50001d003c006022b8000600200007fb230098
:102a60005f989700ef9897007f9997008fa1970044
:102a70004c0b07000002be000203be00d49f9f0063
:102a8000e59f9f00f69f9f0087a79f006168b900a0
:102a9000fb0907005f9a9700ef9a97007f9b9700ca
:102aa0008fa397003f0b07000002be000203be0089
:102ab0000800be000a01be00400a07000004be0074
:102ac0000205be00160037000d00e00014003200c1
:102ad000af9a97000500e00011003a006022b800ac
:102ae0000600200007fe23005f989700ef989700ec
:102af0007f9997008fa197002a0b07000002be0064
:102b00000203be000800be000a01be002b0a070037
:102b10000004be000205be0016002000a69f9f0014
:102b20005fa89700efa897007fa997008fb1970043
:102b300061004000e080480060014900e0814900f8
:102b4000d0af9f00e1af9f00f2af9f0083b79f001f
:102b50001e0020007e014600920078003c1090008c
:102b6000808f5000030031003180fb0001097800a4
:102b7000020037000c007800690707000dfd2f00e8
:102b800080864600e98f560077ff36008000780087
:102b90000150a0001106b100e58f500072ff360011
:102ba000e1022000810f500072ff32000100370067
:102bb000e00220000e00e0001b003a003c109000f4
:102bc0000000e00002003200fe0046009108e9002b
:102bd000bf9897000100e0000c0032000000e00008
:102be00002003200fe0046009108e9001fa1970094
:102bf0000200e000090032000000e000070032009f
:102c00007e0646001c0ee900040037006022b80072
:102c10006033b8000c0078001c070700afa19700d4
:102c20006118b900500037001fa297000400e000af
:102c300016003a005faa9700efaa97007fab9700b3
:102c40008fb3970094af9f00a5af9f00b6af9f00d2
:102c5000c7af9f00110037007fa197008fa9970091
:102c60004418dd00cc10de00810070004410dd004f
:102c7000f0a79f0081af9f0061024200e0824a00fe
:102c800060034b00e0834b00050037005faa97000c
:102c9000efaa97007fab97008fb39700800678006c
:102ca00070002000010020006011b8000020e10049
:102cb00001a8e10002b0e10003b8e100e6ff340042
:102cc0000d0078000050a00001072000810f500087
:102cd00015003a00bf9897000c007800fcfd070033
:102ce0006022b80006002000070028000400e10070
:102cf0000588e1000690e1000798e10013003a0022
:102d0000bf9997000300e00007003a006022b80076
:102d10006033b8000c007800dc0607006000b800e3
:102d20006011b8003b0137003c1290006000b80011
:102d30006011b8000400e000040032007e06460086
:102d40001c0ee9006000b8006011b8007fa2970077
:102d50008faa9700e00f5200e08f5a0007003a0058
:102d6000afa297006128b90034f607006011b800df
:102d7000ad0b0700f7080700260137001faa9700d0
:102d8000afaa97003fab9700cfab97006802520005
:102d9000e0825a0060035b00e0835b002c002000af
:102da0000402d0008582d2000683d2008783d2003d
:102db0000c06e900faff3a00040240008582480050
:102dc0000603490087834900d4af9f00e5af9f0009
:102dd000f6af9f0087b79f00cf9a97000500ea00e3
:102de000cf80de006109b9005faa9700efaa9700c3
:102df0007fab97008fb397000020e10001a8e100ae
:102e000002b0e10003b8e1000f003400200220000e
:102e1000106d8800afa297006128b900180907005b
:102e2000f4ff2f00f5ff2f00f6ff2f00f7fe27001d
:102e30005c0a0700f4ff2f00f5ff2f00f6ff2f00bc
:102e4000f7fe27001a0037004f9b970067f92f0005
:102e500007004300cf80de006109b9005faa970038
:102e6000efaa97007fab97008fb397000020e10097
:102e700001a8e10002b0e10003b8e10039003d0023
:102e800020022000106d8800afa297006128b900d1
:102e9000fb0807006022b8000600200007012000a0
:102ea000400a07006022b800060020000701200049
:102eb0003c0a0700d70037006022b8000600200057
:102ec00007fe23000800be000a01be0088080700b4
:102ed0000c0646008d864e000000e0000d00350017
:102ee00061064600e0864e006022b8000600200021
:102ef00007ff23000800be000a01be0029090700e1
:102f00000002be000203be000800be000a01be00af
:102f1000040037000802be000a03be000800be001d
:102f20000a01be00250907000004be000205be001c
:102f30005fa89700efa897007fa997008fb197002f
:102f400061005000e080580060015900e0815900a4
:102f5000d0af9f00e1af9f00f2af9f0083b79f000b
:102f6000020037007fa697008fae9700e00f560053
:102f7000e08f5e00d0ff3d00fca79f008daf9f005b
:102f80003fa29700cfa2de00612bb90094af9f0053
:102f9000a5af9f00b6af9f00c7af9f000002200003
:102fa000010020006011b800cf9a97004faede00fc
:102fb000050250008c8258000c0359008c83590084
:102fc000d49f9f00e59f9f00f69f9f0087a79f00cb
:102fd0005fa89700efa897007fa997008fb197008f
:102fe0000000420081804a0002014b0083814b00b7
:102ff000d0b79f00e1b79f00f2b79f0083bf9f004b
:103000001faa9700afaa97003fab9700cfab9700de
:103010000020e10001a8e10002b0e10003b8e100f6
:1030200006003400dfaa97004f9b970006805200ed
:103030000002b000b0a79f000b0033006000b80092
:103040006011b80090af9f00a1af9f00b2af9f008a
:10305000c3af9f0040032000bfa09700808f5000a7
:1030600038003c00020037000001eb00b2a79f00cf
:1030700042052000bfa1970003015100000020007d
:1030800001f823004e1007000006be002fa2970093
:103090006120b9007a0807000002be000203be00ea
:1030a0000c00be0094b79f00a5b79f00b2b79f0069
:1030b000c7b79f00270807001fb29700afb297005d
:1030c0003fb39700cfb39700050e07000002be0084
:1030d0000203be0094af9f00a5af9f00b6af9f0054
:1030e000c7af9f00bfa29700ff8f520015003c00a2
:1030f0006022b8006033b8000800be000a01be00bc
:103100000f0807000000e0000e0032006000b80069
:103110007fa3970061006300e00f5000e08f58002c
:1031200008003a007fa697008fae97006106460020
:10313000e0864e00fca79f008daf9f006044b80062
:103140006055b800afa697006168b9004c08070049
:103150000002be000203be00b4a79f00c5a79f00e7
:10316000d6a79f00e7a79f000802be000a03be0083
:103170008c0907000004be000205be007fa0970076
:103180008fa89700410807000002be000203be009e
:103190003fa09700cfa097005fa19700efa19700f5
:1031a000800907000002be000203be001fa89700ae
:1031b000afa897003fa99700cfa997007f08070005
:1031c0000802be000a03be007c0807001faa970081
:1031d000afaa97003fab9700cfab970071080700ed
:1031e0000004be000205be006022b8006033b800d3
:1031f000d30707000000e00002003a002002200090
:10320000106d88005faa97000800be000a01be008a
:10321000151007004f0778004f06be004f05be008f
:103220004f04be000f04b10000000600cf23b00021
:10323000889fbe008a9fbe008c9fbe008e1f7800b4
:103240000004780001007800b2a79f00e39f9f0070
:1032500094af9f00850578008006eb000b003700d7
:103260007e0144009200780038109000808f50005a
:10327000030031003180fb000109780002003700b3
:1032800008007800a60507001d00200001032000ab
:10329000810f5000f2ff32000006eb006022b80000
:1032a0006033b80094b79f00a5b79f00b6b79f00e2
:1032b000c7b79f00e1022000810f50002c003a00a8
:1032c0007e0144009200780038109000808f5000fa
:1032d000090031003180fb00010978006022b8004c
:1032e0006033b80094b79f00a5b79f00b6b79f00a2
:1032f000c7b79f001a00370008007800880507004c
:10330000f6ff37001fb09700afb097003fb19700ae
:10331000cfb1970061005000e08058006001590073
:10332000e081590090b79f00a1b79f00b2b79f00fe
:10333000c3b79f007e0144009200780038109000cf
:10334000808f5000030031003180fb0001097800bc
:103350000200370008007800710507001d002000fa
:1033600001032000810f5000e6ff32001c00200006
:103370006011b800c29f9d00d39f9d008004eb00a8
:103380006022b8006033b800d4af9f00e5af9f0063
:10339000f6af9f0087b79f000907780009057800fe
:1033a00053003700810f50000c003a000c00e00081
:1033b00059003a005fa89700efa897007fa99700ef
:1033c0008fb1970090b79f00a1b79f00b2b79f0041
:1033d000c3b79f001c0020003b0037000103200002
:1033e0005faa9700efaa97007fab97008fb3970073
:1033f00061024200e0824a0060034b00e0834b0020
:10340000d4af9f00e5af9f00f6af9f0087b79f0046
:10341000c3072000830f570023003c00810f50009a
:1034200001003200dfac9700c276dd000a00e00048
:103430001100320085db2f008f8242008d86420012
:103440006102b9000403b1000580b100a2002000b0
:10345000030020001d00be00d4b79f00e5b79f0009
:10346000ca0707005fb29700efb29700801e4200c4
:1034700081964a000500370086db2f000f034300ca
:103480008d064300cf91de00828ebe000a05e80063
:103490001d002000e90f55000b003a000d07470002
:1034a0000005eb0008003700810f500006003200d5
:1034b0004f909700df9097000000a000c0979f00fa
:1034c000d1979f00c94520007e01440092007800fa
:1034d00038109000808f5000030031003180fb00d5
:1034e0000109780002003700080078000c05070089
:1034f00002fd2f0000014100e1022000e90f510010
:10350000a8ff3600810f5000a8ff32000c00e00039
:10351000030032000a003700e002200008003700f4
:103520005faa9700efaa97007fab97008fb3970031
:1035300094b79f00a5b79f00b6b79f00c7b79f007d
:103540000d00e00028003200000178000250a000c9
:1035500051062000810f510023003a008b007800b3
:1035600008007800dafb07006022b800060020009f
:10357000070028000400e1000588e1000690e10052
:103580000798e1000b003a000b00e0002100320038
:10359000381290006000b8006011b8000400e0002c
:1035a000040032007e044400180ce9006000b800fa
:1035b0006011b8001fb29700afb297003fb39700f9
:1035c000cfb397000002420081824a0002034b0001
:1035d00083834b0094b79f00a5b79f00b6b79f00a9
:1035e000c7b79f00120037000000e000050035005b
:1035f000381090000000e000020032007e0044001d
:103600001008e9000d00e00009003a006001200008
:10361000106d88006022b8006033b80008007800a0
:103620009a0407006000b8006011b8007803370002
:103630004f9e9500df9e9500e00f5600e08f5e00e4
:1036400007003a009faa97006128b900fbf3070022
:103650006011b80074090700be0607006c0337004c
:103660001fb09700afb097003fb19700cfb1970060
:103670005faa9700efaa97007fab97008fb39700e0
:103680000400e1000588e1000690e1000798e100f0
:1036900020003a0090002000010020006011b800d6
:1036a0001fb29700afb297003fb39700cfb3970018
:1036b0000020e10001a8e10002b0e10003b8e10050
:1036c00014003c00bfa29700fe8f52000a003c008d
:1036d0000c00be00050378000603e9000300330078
:1036e0008100d1000080d300fbff3700e00f5000c5
:1036f000e08f580007003a009fab97006138b9008f
:10370000df0607000004be000205be000c00be007c
:1037100060003700220020006f9e97001100090012
:103720000206d8000000ea00cf80de006109b9007f
:103730001fb29700afb297003fb39700cfb3970087
:103740000020e10001a8e10002b0e10003b8e100bf
:103750000f00340020022000106d88009faa9700ff
:103760006128b900c6060700f4ff2f00f5ff2f00ff
:10377000f6ff2f00f7fe27000a080700f4ff2f00ce
:10378000f5ff2f00f6ff2f00f7fe27008e00370011
:103790006f9b970067f92f0007004300cf80de0082
:1037a0006109b9001fb29700afb297003fb397000d
:1037b000cfb397000020e10001a8e10002b0e100d2
:1037c00003b8e1000d003d0020022000106d8800cc
:1037d0009faa97006128b900a90607006022b800d7
:1037e0000600200007012000ee0707006022b80055
:1037f0000600200007012000730037000a00e000e7
:103800000e0032000a0037004274dd0086db2f0014
:103810000f03430008044300a2002000030020001f
:103820001800be00d9060700008cbe000a05e8009b
:10383000e80f5500f4ff34000e07e8009fb397002f
:10384000e88f540002003c00878f540005003400cc
:103850004270dd008cdb2f000f06460000004600a2
:103860005c0037009fb69700f18f5600f8ff3c00d0
:10387000e98f560009003a001fa997006110b900ae
:103880007f0607000004be000205be004f989500a9
:10389000df9895007d060700470037009fb197002d
:1038a000e88f51001c003c001faa97006120b9005e
:1038b000730607000004be000205be004f98950085
:1038c000df989500710607000002be000203be00eb
:1038d0000800be000a01be00b20707000004be00d7
:1038e0000205be009fb29700688012004200dd0012
:1038f000c1d42000008040001000be006006070018
:103900000002be000203be000800be000a01be00a5
:10391000f5060700be0237003fa397007b00430077
:10392000d2ff2f009fb3970002b9b90002014000f7
:10393000fe0f51000a003c004f989500df9895005b
:103940000201e900030033008100d1000080d300b0
:10395000fbff3700e00f5000e08f5800bcff3a003b
:103960001fae97006160b900450607000004be0065
:103970000205be004f989500df98950043060700aa
:103980000002be000203be000800be000a01be0025
:10399000840707000004be000205be009fb6970022
:1039a0006a8056004200dd00c1d420000080400043
:1039b0001000be00320607000002be000203be0077
:1039c0000800be000a01be0076070700900237001b
:1039d0000e07e9004001be00e00f5100e08f5900e2
:1039e000fbff3200940020009fb0970011000900f7
:1039f0008400d800010278000001eb00d2af9f00e4
:103a00000400e000520032009fb197000300e00084
:103a100001003d0069024200680012004200dd0022
:103a2000c1d42000008040001005be0046db2f00fe
:103a30000f0343006044b8008002eb00d5af9f0045
:103a4000c4a79f000800be00850478000604780023
:103a50000002be002d0037005806be000a01be005d
:103a60000c00be00d4b79f00e5b79f0034060700e6
:103a70005fb29700efb297000403400085834800cf
:103a8000068cbe000a01be0000a02c00a1b92300d4
:103a9000f6b79f0087bf9f009a0507000002be008f
:103aa0000a01be000c00be00d4b79f00e5b79f001e
:103ab000330607000001be005fb29700efb2970027
:103ac0000400be00310607000002be000900e80045
:103ad0007fb397008fbb97005fae97008c8f540029
:103ae00009003a00e00f5300e08f5b0006003a0047
:103af00080067800fd07b200ddaf9f009fb0970001
:103b0000e980500091b79f00800478008e8f5400a8
:103b1000d1ff3a000404be004fa29700e00f54000a
:103b2000e08f5c00060032004270dd0082db2f0077
:103b30000f014100000041000888be000e07e800a8
:103b4000690212009fb197008481410093b79f00e2
:103b50000002eb00c4a79f00dfae97006c003700a7
:103b6000cfa29700fd825200c5a79f000e06e90074
:103b7000fc07b2006033b800d6af9f00e7af9f00ec
:103b80004260dd0087db2f008f834300808343008a
:103b9000d7a79f001704be006055b800cd55dd00c3
:103ba0004348de008b0570004d4ddd004340de00d4
:103bb0000a057000cd44dd000004eb005fa997000a
:103bc000efa99700080441008984490060054d0071
:103bd000e0854d0004a02c00a5b923006033b80097
:103be0000440e10005c8e10006d0e10007d8e1008b
:103bf0000e0036000800be000a01be00840a07005d
:103c0000d0af9f00e1af9f0004a02c00a5b9230016
:103c10006033b8000800be000a01be00830a070036
:103c2000dfa39700808bbe00050037005fa09700e0
:103c30000888be006011b800d2af9f00e3af9f00bc
:103c40000e00e900f007b200800f56000b003a00aa
:103c50008d0f56000e0032004260dd0083db2f0026
:103c60008f814100008041001000be00e00f500035
:103c7000e08f5800ed013200020037008d0f560032
:103c8000030032000c06e900fc07b200bcff37005d
:103c90005faa9700efaa9700e00f5200e08f5a004a
:103ca0001b0032009fb29700e982420095b79f0047
:103cb0008d06e900fd07b2008e8f56000d003a0018
:103cc0000d07e900fe07b2000e00e900f007b200a0
:103cd0004200dd0086db2f000f034300000043009d
:103ce000c270dd00810043001001be003118710078
:103cf000219071004268dd0083db2f008f8141003d
:103d0000008041005faa9700efaa97000488be00d8
:103d10009fb29700f18f520091ff3400f28f520052
:103d200009003a004269dd0086db2f000f034300e3
:103d300002014300e005270091082000b20f1000a7
:103d4000a28f180086ff36008d03780082d62000ef
:103d50000000eb0087004000f107b2008e8f50009a
:103d60000d003200c208dd0083db2f008f8141008f
:103d7000818041001104be005202be00840f540035
:103d8000858f5c00040039000d003e000000e80053
:103d9000e20f5000efff3a001fb29700f20f5200ff
:103da00007003a00d7af9f006044b8006055b800e4
:103db0008006eb000800be000a01be006700370065
:103dc000990020009fb29700fb8f520001003c0039
:103dd000190020004fa3970009034300c6a79f00c6
:103de000100020000900dd000000e9006101b900b9
:103df000d2a79f00e3a79f000aa02c00abb9230025
:103e0000890178008301e900030033008b85d1002c
:103e10000a85d300fbff3700070478006000b80074
:103e2000d0af9f00e1af9f000a02be001fb5970010
:103e3000870578002d003700c240dd0086db2f00ab
:103e40000f034300810043001101be000203be00c6
:103e5000090678000c06e900030033008703d1004f
:103e60000683d300fbff37005fae9700efae9700ed
:103e70000603460087834e008688be006fa0970029
:103e800083066000dfa09700028660000401be0088
:103e90000c00be00d4b79f00e5b79f00f6b79f00a7
:103ea00087bf9f0039050700d0af9f00e1af9f009b
:103eb0000800e8005fb29700efb297007fb3970069
:103ec0008fbb97008b0f540006003a00e00f5300a1
:103ed000e08f5b0003003a0080057800fb07b2002a
:103ee0006905550000047800f807b2008e0f5400f1
:103ef000d1ff3a008b0378009ab79f005fa8970024
:103f0000efa89700e00f5000e08f58008fff3200bd
:103f10000e01e800f207b200870f510007003200df
:103f20004277dd0083db2f008f8141000e87410047
:103f3000008fbe000207780084ff37000e00e90002
:103f4000f007b2004200dd0084db2f000f024200c8
:103f5000000042001000a0007cff3700dfaa97009d
:103f600005864600fc07b2008e0f560009003a0095
:103f70000e07e800fe07b2000e02e9004222dd0053
:103f800086db2f000f03430004024300000aeb000e
:103f9000341278006022b80056d62c00d71c2400ba
:103fa000000607000004be000205be004266dd00f8
:103fb00087db2f008f8343000c8643001c00be006c
:103fc000b20407000002be000203be000800be00eb
:103fd0000a01be00f90407008d06e800e28f5600d2
:103fe000deff3a000004be000205be001fae9700cf
:103ff0006160b900a20407000002be000203be0017
:104000000800be000a01be00e60507000002be006f
:104010000203be00d4a79f00e5a79f00f6a79f005c
:1040200087af9f00cfa297005503b000c59f9f00a8
:104030006f9b970006835200d69f9f00bfa39700f7
:10404000868f5300060034000600e0000b003500a8
:10405000060678001d0020009db79f000300370072
:104060003fa697000000eb0090b79f0040032000a0
:10407000800f560037003c0003003700110020007d
:1040800091b79f000006eb00920620000c01510042
:104090000000200001f82300490c07002d04070050
:1040a0005fa29700efa297007fa397008fab9700c6
:1040b0000b0a07000002be000203be00f49f9f002f
:1040c00085a79f0096a79f00a7a79f0052032000e7
:1040d0000c0151000000200001f82300380c0700fb
:1040e0001c0407000002be000203be005fa0970090
:1040f000efa097007fa197008fa997009a0a070069
:104100000004be000205be000002be000203be00a5
:104110005fa09700efa097007fa197008fa997005d
:10412000a00407007f9a97008fa297001fa3970013
:10413000afa39700a10407000002be000203be0067
:10414000d4a79f00e5a79f00f6a79f0087af9f0019
:10415000080037006000b8006011b800f09f9f00b1
:1041600081a79f0092a79f00a3a79f000004be0005
:104170000205be00dfa897000180e800f007b2004a
:104180008e0f50004e0032004200dd0082db2f0017
:104190000f014100000041001001be00f04f260059
:1041a000d1dc2100800f5100818f59000e003e00ac
:1041b000e00f5100e08f590005003a00dfa9970099
:1041c00063804100f007b2008e0f500025003200de
:1041d0001faa97006120b90018f107000200200013
:1041e00003e823001600370000502600d1dc210030
:1041f000800f5100818f5900030032009faa970061
:104200006128b9000b0037005fab970063014300e2
:10421000f207b2009fab97006138b9008e0f5100d2
:1042200004003a0005f107000200200003f023001b
:104230000300370001f107000200200003f423000f
:1042400079060700c30307000002be000203be0098
:104250000800be000a01be00580407000004be00aa
:104260000205be00500320000c005000e10f50007a
:10427000130034006022b8000600200007ff23006e
:104280000800be000a01be00370a07006022b8001d
:104290006033b800aa0307000000e00008003a00fd
:1042a0006022b8000600200007ff23000800be00bf
:1042b0000a01be00410407000004be000205be0062
:1042c0003fa09700e3061000ef9897008186560004
:1042d0000802be000a03be005fa09700efa097008f
:1042e0007fa197008fa99700340407007f9a970059
:1042f0008fa297001fa39700afa397002904070080
:104300000002be000203be0094af9f00a5af9f0055
:10431000b6af9f00c7af9f0064805600cf9897004c
:1043200001f0a100810f500033003c000400be00ea
:10433000850907006022b800060020000734240029
:104340006b0307000000e0001b0035009fb29700e0
:104350000500e000070032005f9b970006066e0034
:104360000cf0a7000c06ea000c06ea004f66de001f
:104370009cb79f006022b8000600200007fe2300c3
:104380001fa89700afa897003fa99700cfa9970053
:10439000040507000002be000203be0094af9f00a8
:1043a000a5af9f00b6af9f00c7af9f00cfa29700f9
:1043b0008502e800c5a79f004fa097004003b0000a
:1043c0008d0f50000a003d001fb397000600e0006b
:1043d000090032006022b8006033b8000800be0057
:1043e0000a01be00560307000000e0000200320090
:1043f00020022000106d88004fa297001fa8970090
:10440000afa897003fa99700cfa99700960b070088
:104410004f0778004f06be004f05be004f04be0098
:10442000ef1fb100ef03b100000006000c07780099
:1044300014fe3700e4874700889fbe008a9fbe00b5
:104440008c9fbe008e1f7800000478000207780061
:104450000100e000fa003500bbf62f008a012000c1
:10446000e18f500004003400e28f5000f4003a0065
:10447000ebbc2f005a032000fe004400110078001e
:1044800038119000820f500003003100b084fb000f
:10449000800878000300370008007800200107003a
:1044a0008004780009007800fff707000000e000b2
:1044b000f1ff3a00b0022000808f54000600320065
:1044c0001c002000d0022000808f54000f003a0012
:1044d0002c002000010037000006eb0061061600ea
:1044e000fe0044001100780038119000820f500047
:1044f00003003100b084fb0080087800030037001f
:10450000080078000601070080047800d1d320005d
:104510008006eb0012003700e78f56000d003200d6
:104520007e01440012007800b8119000830f500003
:1045300003003100b084fb0000097800050037005b
:104540000800780081bf9f00f50007008004780014
:104550008fb897008d06e800e88f56001d003200e6
:10456000090178000250a0005100fb00800f5100ab
:10457000e9ff32000d007800e38f5600060032009c
:10458000e88f560013003200e38f56001700360004
:104590000e00e000ba003200b81090000100e00008
:1045a000020032007e0144001209e9000e00e00022
:1045b00008003200050037000100e0000200320070
:1045c0007e0144001209e9000000e900e30f5000f9
:1045d000f9ff3a00e10f46009c003a006000b80085
:1045e0000200200003ff2f009f00370061d420004d
:1045f0000d00e00013003200a1003700e28f5600ea
:104600000d0032007e01440012007800b8119000c5
:10461000830f500003003100b084fb0000097800d4
:10462000050037000800780081bf9f00bc0007002c
:10463000800478008fb897008d06e800e38f56005d
:1046400006003200090178000250a0005100fb0072
:10465000800f5100e9ff3200890037007e014400dd
:104660009200780038109000808f500007003100d1
:1046700080c2b300314068000080fb000000ea0007
:104680004f00de00010978000700370008007800bd
:10469000a30007008082b20000f0a7000000ea003b
:1046a0000000ea004f00de00190020000004e000d6
:1046b00006003200381090000000e0006700320071
:1046c0007e044400180ce900640037007e014400b9
:1046d0009200780038109000808f50000300310065
:1046e0003180fb00010978000200370008007800e3
:1046f0008b00070001fd2f0080804000e98f5000f3
:104700000b003600f1fb2f0080804000f98f500035
:1047100007003600f1f92f0080804000f98f50002b
:1047200003003600f1052000810f500002003a001e
:104730008904e800e5ff370091022000810f500056
:1047400046003200381090000000e0000200320005
:10475000fe0044009108e9000e00e00006003a0067
:104760000d0037000000e00002003200fe004400af
:104770009108e9008904e9000900e000f9ff3a0026
:1047800036003700381090000000e00002003200d0
:104790007e0044001008e90060012000106d8800d0
:1047a0006022b8006033b8000800780037000700c6
:1047b0002300370000032000808f54001a003a00c5
:1047c0007e0144009200780038109000808f5000e5
:1047d000030031003180fb0001097800020037003e
:1047e000080078004e0007000050a000810720005c
:1047f000810f500007003a000e0278008c0178000b
:104800000b0178008a00780008007800edf70700b7
:1048100015003700381090000000e0000200320060
:104820007e0044001008e9008e0278000c02780037
:104830000a01be000800be007cfa07000a0037002b
:104840006000b8006011b800070037006000b800d1
:104850000200200003ff2700030037006000b800bb
:104860000200200083ff27004f0778004f06be009c
:104870004f05be004f04be004f00b100000006000f
:104880000d00e000bfff3a00caff3700889fbe005e
:104890008a9fbe004410980055109800661098003a
:1048a00077109800f0089000200490000104540054
:1048b000cfc4de00614db90008189800191898009f
:1048c0002a1898003b189800e00f5200e08f5a0019
:1048d000e00f5b00e08f5b000c00320000149000e2
:1048e00001045400cfc4de00614db9000440e10072
:1048f00005c8e10006d0e10007d8e100030034005c
:104900006002b00004884000020037008010900070
:10491000311098004f05be004f04be000000060095
:104920002800fa00889fbe008a1f780000047800e3
:10493000f80890002800900000805000081a9000ad
:10494000981a9000281b9000b81b9000cf80de00c2
:10495000040240008582480006834800878348009f
:1049600048109000d810900068119000f811900045
:10497000e00f5000e08f5800e00f5900e08f590021
:10498000050032000020e10001a8e10002b0e100d2
:1049900003b8e1000d003d0008007800d4b79f0087
:1049a000e5b79f00f6b79f0087bf9f007100070023
:1049b000800478005fb29700efb297007fb3970052
:1049c0008fbb97000900e00014003d0078089000bc
:1049d0002801900000015100010320008880400060
:1049e000cf91de00841841008598490086984900df
:1049f0008788490030149800f0ff2f00f1ff2f0046
:104a00000001be00401498005114980062149800f0
:104a1000731498008084eb0051003700610042005d
:104a2000e0804a0060014b00e0814b0090bf9f0096
:104a3000a1bf9f00b2bf9f00c3bf9f00481290005c
:104a4000d812900068139000f813900094b79f005c
:104a5000a5b79f00b6b79f00c7b79f00e00f5200f1
:104a6000e08f5a00e00f5b00e08f5b00290032000e
:104a7000780d9000081190000a0151006112b900f0
:104a8000612bb900d4af9f00e5af9f00f6af9f0048
:104a900087b79f001fb09700afb097003fb1970056
:104aa000cfb197001fba9700afba97003fbb9700ee
:104ab000cfbb9700040050008580580006015900c4
:104ac0008781590090af9f00a1af9f00b2af9f00b8
:104ad000c3af9f005faa9700efaa97007fab970034
:104ae0008fb397000020e10001a8e10002b0e100cf
:104af00003b8e100070034009fb297001fbb970086
:104b0000868152006202200008014100030945002d
:104b10000200370088139000371498002801900095
:104b2000f8089000810151000803b0001fba9700f7
:104b3000afba97003fbb9700cfbb97004f98de00fe
:104b4000049c4100051c4800061c4800070c480056
:104b50006800b100828f500001003e00f9f89f000c
:104b6000090078004f0578004f04be000080fa006d
:104b7000000006000200fa00889fbe0000047800d2
:104b800008007800100007008084eb000000e000bf
:104b900009003a009811900012002000e6805700aa
:104ba0000800780003000100e10f500002003a0005
:104bb0002ff897008084fb00090078004f04be00a6
:104bc0000080fa0000000600881f780000047800ca
:104bd0004002200008004000904078000141e900b8
:104be00001487100d800900068009000808f50004c
:104bf00005003600b80990000001eb008200780043
:104c00000800780003000100740044000008eb0075
:104c10006c0044000008eb006a0044000008eb0050
:104c200008007800d00078000118a30003003200cb
:104c30000140a0000108780008003700280190001a
:104c4000380090000000410000149800700c98009b
:104c50000000eb000138a300010032000080eb00ef
:104c60004f04780000000600020037000000060034
:104c700000000500fdff0700006d80008000eb00d4
:104c8000fbff0700006d80008000eb00f8ff0700cd
:104c9000006d80008000eb00f5ff37008000780099
:104ca0001000200002022000828f50000400320019
:104cb000e9805000e48f5000010036000000eb0056
:104cc00000000600889fbe008a1f780080047800dc
:104cd0000904780088047800394578000a00fb0050
:104ce000eeff07000000e000f9ff3a00b0c2b30099
:104cf000804f550005003200d0c2b3008000eb00a9
:104d0000804f550005003a00020037008000eb009c
:104d100001003700110020000804e8000000eb004b
:104d2000030037006a02b900020052000003b0001d
:104d30003801fb0003fd2f0082814100e98f510003
:104d4000f8ff36000100e00001003a000000ea0030
:104d50004f0578004f04be0000000600881f780051
:104d60000004780008007800bc0007000800780004
:104d70004f04780000000600f1fb2f008080400007
:104d8000f98f500001003e000050a0000000060016
:104d9000f9ff3700881f7800000478000008200021
:104da000808f50001700350010082000808f5000c1
:104db0000b00340030082000808f500011003a00b2
:104dc0009200780068805000000978003002be0030
:104dd0002003be00049cbe000694be0007003700fe
:104de0009202780064805200000978001000be0032
:104df000d8000700009cbe000294be0010002000f6
:104e0000010037000000eb004f04780000000600ae
:104e100084082000848f50001d0032000d003c00eb
:104e200014082000848f50002700320002003c004c
:104e3000040820000400370024082000848f50005c
:104e40002a00320044082000848f500048003a00b5
:104e50003b003700040a2000848f50002c003200f1
:104e600004003c0004092000848f500040003a00f8
:104e70002d003700020c2000828f50001e003200ef
:104e8000020f2000828f500039003a0030003700b6
:104e90009380e9000200e0000500320081097800fb
:104ea0001102fb00cfa2de00612bb9002d003700fc
:104eb00081097800114278000482fb008002eb0037
:104ec0006033b8002700370013027800e400520076
:104ed0000200e0000a003200810978001102be00e1
:104ee0004fabde00860378001e0037009302780087
:104ef000e88052000e00370093027800e4805200f0
:104f0000810978001102be006033b8001500370037
:104f10009380e9008109780011027800cfa2de00b9
:104f2000612bb9000f00370013037800e80053002d
:104f3000810978003102be002103be00090037005c
:104f40009380e9000200e00002003200f1ff370028
:104f50009380e90081097800110278008002eb005b
:104f60006033b8000498be000690be001000050033
:104f70000000050044082000848f50002700320004
:104f80000a003c0014082000848f50001c003200ee
:104f900024082000848f50002600320004082000de
:104fa000848f50002c003a001c00370004092000b8
:104fb000848f50001f00320004003c008408200051
:104fc000848f500024003a0007003700040a2000b4
:104fd000848f500011003200040c2000848f500098
:104fe0001d003a00060037009380e900810978002f
:104ff0009100780001087800824878001500370099
:105000009380e90081097800910078000108780018
:10501000cf91de008288be000e0037009380e90049
:1050200081097800910078000108780082087800f2
:10503000080037009380e90081097800910078002a
:10504000010878006112b900612bb9008498be0094
:105050008690be00100005000000050001017800e8
:1050600080017800008268000408a3000500320077
:105070001300370032407800805978000004e000c7
:1050800014003200030278000208a300f9ff3a007e
:1050900003007800010037000318780082007800d0
:1050a000b2017800f5ef2f00838242000382ea000c
:1050b000048262000508280005026200f6ff320043
:1050c0000002780031417800025878000204e000c4
:1050d000fbff3a0004007800000006008f1fd1009b
:1050e000b90307008f87e9000000e0000000060018
:1050f000809feb00b40307008f87e9000000e00009
:1051000000000600839f68000100e00002003d00ef
:1051100060001000e08018000300e00002003d0085
:1051200060011100e0811900850007004f00e000d8
:1051300002003b0060001000e08018000000060044
:10514000801feb00a00307008f87e9000000e0004c
:10515000000006008103780042ef07000001be0056
:105160006000b8000478a30013003a006220e10058
:1051700015003e000d0039008301d1000281d300eb
:105180008180d3008301d1000281d3008180d300cc
:105190008301d1000281d3008180d3000538b000a3
:1051a000c42add00f300b2008381720007f0a7007b
:1051b00003f0a0000000060083ff2700020020008b
:1051c0006110b900f9ff370003ff2700f7ff370030
:1051d0001400fa00889fbe008a9fbe008c9fbe000c
:1051e0000004be000205be00680047000a90be0031
:1051f0000890be00af0307000070a7000bf0a100ed
:10520000304320009e02900080825200b0fe2f00aa
:105210000028e10011003d00b0fc2f000028e10053
:10522000150034001e0990008e0890007e0090004a
:105230000501b0000201d1008180d3000080d300bd
:105240008502e800fbff3a000b00e000d4033b00be
:1052500060001000e0801800d1033700f0ff2f003d
:10526000f1ff27000b00e000cd033b000100280008
:1052700000002000ca0337006000b800c8033700f0
:105280004f89de0082017800ca0337006011b80040
:10529000d80337001400fa00889fbe008a9fbe0022
:1052a0008c9fbe000005be000206be0068004700dd
:1052b0000c90be000a90be007e0307006400e1006f
:1052c0001a00320016003e006100e1001a003200b0
:1052d0006e049000fe0490000e0b90009e0b900058
:1052e0006011b8009e0590000b38b100d501200078
:1052f00082817100610164008703d1000683d300bd
:105300008984d3000884d3008502e900f8ff3a00bd
:10531000a6ee07000df0a70001f0a000a0033700e3
:1053200001fc270000002000faff370001f82700e9
:1053300000002000f7ff37006000b800f5ff3700dd
:105340006022b800060220000000d0008180d20058
:105350000482d2008582d2000000a0000202520026
:1053600083825a00030031000202420083824a0015
:105370000000a1000603e900f3ff3a000000060068
:10538000efff07000400be0000000600020ab9009b
:10539000001bb9000200b8008100420081004300f8
:1053a000000006008c9fbe008a9fbe00889fbe0042
:1053b000ca0107000bf0a200040037008c9fbe005a
:1053c0008a9fbe00889fbe00c40107000c48e10010
:1053d0000b003a000c40e100020032008b01070094
:1053e000400037008b066d003e0032000af0a1003d
:1053f000f3012000f2ff2f006110b90039003700df
:105400000c40e100370032000940e10001003600a5
:105410007e0107008a856d00cf5dde000b057500fb
:105420000006eb008804fd008904540001003200ee
:105430007d0107000a04e00011003a000800e000c6
:105440002800320004004000858048000601490021
:10545000878149000358a300180032008301d1005e
:105460000281d3008180d3000080d3000c86d3005a
:1054700001003900610676000804e80018003700d2
:1054800004005000858058000601590087815900aa
:10549000060031000af0a2000c06ea0060001800c5
:1054a000e080180060011900e081190003003a0053
:1054b0000004eb000005eb000a0037000348a300de
:1054c00007003a000c0646000000480081804800b2
:1054d00002014900838149000804e900f7ff370011
:1054e000af013700c90137008c9fbe008a9fbe0004
:1054f000889fbe00790107000b056d000940e1009f
:105500000a003a000800e000020032000c40e1000e
:1055100006003a000af0a1000c047800f301200014
:10552000f2ff2f006110b9009d0037000c40e10030
:105530009b0032000800e000990032000c48e100b6
:1055400002003a000004eb00030037000900e0000d
:1055500004003a000c0478006000b8006011b80044
:105560008f0037000348a30006003a000000400007
:105570008180480002014900838149000804e90054
:10558000f8ff37000748a30006003a000402420073
:1055900085824a0006034b0087834b008904e9009b
:1055a000f8ff3700fd3f20008d84540009045400ab
:1055b0008a1f7800881f7800000478008104780032
:1055c00002057800830578006000b8006011b8001b
