:020000040000fa
:080000000002040000000000f2
:020000040000fa
:04000800cc02000026
:020000040000fa
:04000c00cc02000022
:020000040000fa
:04001000cc0200001e
:020000040000fa
:04001400cc0200001a
:020000040000fa
:04001800cc02000016
:020000040000fa
:04001c00cc02000012
:020000040000fa
:04002000cc0200000e
:020000040000fa
:04002400cc0200000a
:020000040000fa
:04002800cc02000006
:020000040000fa
:04002c00cc02000002
:020000040000fa
:04003000cc020000fe
:020000040000fa
:04003400cc020000fa
:020000040000fa
:04003800cc020000f6
:020000040000fa
:04003c00cc020000f2
:020000040000fa
:04004000cc020000ee
:020000040000fa
:04004400cc020000ea
:020000040000fa
:04004800cc020000e6
:020000040000fa
:04004c00cc020000e2
:020000040000fa
:04005000cc020000de
:020000040000fa
:04005400cc020000da
:020000040000fa
:04005800cc020000d6
:020000040000fa
:04005c00cc020000d2
:020000040000fa
:04006000cc020000ce
:020000040000fa
:04006400cc020000ca
:020000040000fa
:04006800cc020000c6
:020000040000fa
:04006c00cc020000c2
:020000040000fa
:04007000cc020000be
:020000040000fa
:04007400cc020000ba
:020000040000fa
:04007800cc020000b6
:020000040000fa
:04007c00cc020000b2
:020000040000fa
:04008000cc020000ae
:020000040000fa
:04008400cc020000aa
:020000040000fa
:04008800cc020000a6
:020000040000fa
:04008c00cc020000a2
:020000040000fa
:04009000cc0200009e
:020000040000fa
:04009400cc0200009a
:020000040000fa
:04009800cc02000096
:020000040000fa
:04009c00cc02000092
:020000040000fa
:0400a000cc0200008e
:020000040000fa
:0400a400cc0200008a
:020000040000fa
:0400a800cc02000086
:020000040000fa
:0400ac00cc02000082
:020000040000fa
:0400b000cc0200007e
:020000040000fa
:0400b400cc0200007a
:020000040000fa
:0400b800cc02000076
:020000040000fa
:0400bc00cc02000072
:020000040000fa
:0400c000cc0200006e
:020000040000fa
:0400c400cc0200006a
:020000040000fa
:0400c800cc02000066
:020000040000fa
:0400cc00cc02000062
:020000040000fa
:0400d000cc0200005e
:020000040000fa
:0400d400cc0200005a
:020000040000fa
:0400d800cc02000056
:020000040000fa
:0400dc00cc02000052
:020000040000fa
:0400e000cc0200004e
:020000040000fa
:0400e400cc0200004a
:020000040000fa
:0400e800cc02000046
:020000040000fa
:0400ec00cc02000042
:020000040000fa
:0400f000cc0200003e
:020000040000fa
:0400f400cc0200003a
:020000040000fa
:0400f800cc02000036
:020000040000fa
:0400fc00cc02000032
:020000040000fa
:04010000cc0200002d
:020000040000fa
:04010400cc02000029
:020000040000fa
:04010800cc02000025
:020000040000fa
:04010c00cc02000021
:020000040000fa
:04011000cc0200001d
:020000040000fa
:04011400cc02000019
:020000040000fa
:04011800cc02000015
:020000040000fa
:04011c00cc02000011
:020000040000fa
:04012000cc0200000d
:020000040000fa
:04012400cc02000009
:020000040000fa
:04012800cc02000005
:020000040000fa
:04012c00cc02000001
:020000040000fa
:04013000cc020000fd
:020000040000fa
:04013400cc020000f9
:020000040000fa
:04013800cc020000f5
:020000040000fa
:04013c00cc020000f1
:020000040000fa
:04014000cc020000ed
:020000040000fa
:04014400cc020000e9
:020000040000fa
:04014800cc020000e5
:020000040000fa
:04014c00cc020000e1
:020000040000fa
:04015000cc020000dd
:020000040000fa
:04015400cc020000d9
:020000040000fa
:04015800cc020000d5
:020000040000fa
:04015c00cc020000d1
:020000040000fa
:04016000cc020000cd
:020000040000fa
:04016400cc020000c9
:020000040000fa
:04020800cc02000024
:020000040000fa
:04020c00cc02000020
:020000040000fa
:04021000cc0200001c
:020000040000fa
:04021400cc02000018
:020000040000fa
:04021800cc02000014
:020000040000fa
:04021c00cc02000010
:020000040000fa
:04022000cc0200000c
:020000040000fa
:04022400cc02000008
:020000040000fa
:04022800cc02000004
:020000040000fa
:04022c00cc02000000
:020000040000fa
:04023000cc020000fc
:020000040000fa
:04023400cc020000f8
:020000040000fa
:04023800cc020000f4
:020000040000fa
:04023c00cc020000f0
:020000040000fa
:04024000cc020000ec
:020000040000fa
:04024400cc020000e8
:020000040000fa
:04024800cc020000e4
:020000040000fa
:04024c00cc020000e0
:020000040000fa
:04025000cc020000dc
:020000040000fa
:04025400cc020000d8
:020000040000fa
:04025800cc020000d4
:020000040000fa
:04025c00cc020000d0
:020000040000fa
:04026000cc020000cc
:020000040000fa
:04026400cc020000c8
:020000040000fa
:04026800cc020000c4
:020000040000fa
:04026c00cc020000c0
:020000040000fa
:04027000cc020000bc
:020000040000fa
:04027400cc020000b8
:020000040000fa
:04027800cc020000b4
:020000040000fa
:04027c00cc020000b0
:020000040000fa
:04028000cc020000ac
:020000040000fa
:04028400cc020000a8
:020000040000fa
:04028800cc020000a4
:020000040000fa
:04028c00cc020000a0
:020000040000fa
:04029000cc0200009c
:020000040000fa
:04029400cc02000098
:020000040000fa
:04029800cc02000094
:020000040000fa
:04029c00cc02000090
:020000040000fa
:0402a000cc0200008c
:020000040000fa
:0402a400cc02000088
:020000040000fa
:0402a800cc02000084
:020000040000fa
:0402ac00cc02000080
:020000040000fa
:0402b000cc0200007c
:020000040000fa
:0402b400cc02000078
:020000040000fa
:0402b800cc02000074
:020000040000fa
:0402bc00cc02000070
:020000040000fa
:0402c000cc0200006c
:020000040000fa
:0402c400cc02000068
:020000040000fa
:0402c800cc02000064
:020000040000fa
:0402cc00cc02000060
:020000040000fa
:0402d000cc0200005c
:020000040000fa
:0402d400cc02000058
:020000040000fa
:0402d800cc02000054
:020000040000fa
:0402dc00cc02000050
:020000040000fa
:0402e000cc0200004c
:020000040000fa
:0402e400cc02000048
:020000040000fa
:0402e800cc02000044
:020000040000fa
:0402ec00cc02000040
:020000040000fa
:0402f000cc0200003c
:020000040000fa
:0402f400cc02000038
:020000040000fa
:0402f800cc02000034
:020000040000fa
:0402fc00cc02000030
:020000040000fa
:04030000cc0200002b
:020000040000fa
:04030400cc02000027
:020000040000fa
:04030800cc02000023
:020000040000fa
:04030c00cc0200001f
:020000040000fa
:04031000cc0200001b
:020000040000fa
:04031400cc02000017
:020000040000fa
:04031800cc02000013
:020000040000fa
:04031c00cc0200000f
:020000040000fa
:04032000cc0200000b
:020000040000fa
:04032400cc02000007
:020000040000fa
:04032800cc02000003
:020000040000fa
:04032c00cc020000ff
:020000040000fa
:04033000cc020000fb
:020000040000fa
:04033400cc020000f7
:020000040000fa
:04033800cc020000f3
:020000040000fa
:04033c00cc020000ef
:020000040000fa
:04034000cc020000eb
:020000040000fa
:04034400cc020000e7
:020000040000fa
:04034800cc020000e3
:020000040000fa
:04034c00cc020000df
:020000040000fa
:04035000cc020000db
:020000040000fa
:04035400cc020000d7
:020000040000fa
:04035800cc020000d3
:020000040000fa
:04035c00cc020000cf
:020000040000fa
:04036000cc020000cb
:020000040000fa
:04036400cc020000c7
:020000040000fa
:100400000fce20000e7f24000e01880000000000a7
:10041000000020000000e000020032000001200087
:1004200020028800140007005d0007000000e000c3
:1004300003003a00e0212300010020000200370001
:100440000000200001002000810f70000100320038
:1004500014000700000020000000e000020032004d
:1004600000000200000000008e2c020000000000ce
:100470000040da000000fe004440a900803721005f
:100480000000e0000300320000002000a00188000e
:100490004440a800000006008a1f78008b1f7800e7
:1004a0000000060091018800800478000000eb0045
:1004b0001a003700e284440032a0b4009905ba0063
:1004c000e284440032a0b4009906ba00e2844400f9
:1004d00032a0b4000006eb00476fde00fd07b2005b
:1004e000636ce10003003a00ebff07000000eb0043
:1004f0000a003700606ce10004003a00005deb0088
:100500008b05e900fdff3e00040037006168e10053
:10051000010032000086eb000b00070019c7ba008b
:100520001905ba000e04e00003003a000a00e000da
:10053000e0ff3a0000000600fe07b2009e018800be
:100540008a047800f5ff3700395dba008b05e900b1
:100550000c003200295dba008b05e900080032006a
:100560000c00e00003003a00e284440032a0b40032
:10057000f5ff370019ddba008b05e900faff3a00f4
:100580008904e800e184440032a0b40000000600c1
:1005900080040400000000000040da000000fe00bb
:1005a00000000500889fbe008a9fbe008c1f780057
:1005b000670007006e00330003866c006450e100a2
:1005c0002e0032006420e100330032006150e1006f
:1005d0002f0032006120e100310032008585550096
:1005e000eb07b000090020000804200005003700d8
:1005f0000804440089844c000a00310006034300cb
:1006000087834b000001530081815b00f8ff3300ba
:100610000203be000800a0000804440089844c00c6
:10062000f6ff3900c639dd00830173000100320096
:10063000130020008904d1000884d3000998a30086
:10064000050032000800a7000300a0008904d100c3
:100650000884d3008b05e8008904d1000884d30006
:100660000001eb000281d2001300070001f0a1009d
:100670000cf0a70001f0a000460037006420e10064
:10068000480032000801be000200be00f7ff37003c
:100690006120e100430032006000b800f3ff370042
:1006a0000000200001f82700f0ff37004f89de002e
:1006b000820178003e0037008100200061805500f3
:1006c0000b003d000b00200061fe2f000100e10047
:1006d0001d00340082817100610164008904d10031
:1006e0000884d3000000e800faff3a0071002000ff
:1006f0006100640003007000020060000900320025
:1007000061044400e0844c000988a5000500320023
:100710008b05e8006808e10002003a008904d10076
:100720000884d300f20f20000258e10005003d00cc
:10073000c75ddd00f907b200898075000800780008
:10074000000006000bf827008b0078000000050071
:100750000004be00550007000003be000405be00f3
:100760000200be0051000700844f75000000060023
:100770000200be006450e100050036006420e10084
:10078000020036000968a30001003a000800be001c
:100790000160a0004f0678004f05be004f04be0068
:1007a00000000600f0ff2f00f1ff2700f9ff3700df
:1007b000881f7800030478000300e00007003d0074
:1007c00060001000e080180060011900e08119004d
:1007d00002003b0001f02d00030037000400070079
:1007e00008f0a70001f0a0004f0478000000060008
:1007f000889fbe008a9fbe000082700004027100c4
:1008000004827100260032000004be000200be0017
:100810006011b8006b092000950220000182cf0012
:100820000a0039000541b1000082cf0007003900fd
:100830000541b1000982cf00040039000541b10033
:100840000882cf00010039000541b1000542520085
:10085000120032000a003b008281710061016400d5
:100860008100d1000080d3008984d3000884d300a4
:100870008b05e8000442e800f7ff3a000700370064
:100880000804440089844c0000004800818048002e
:100890008b05e9000442e900f9ff3a0086ff0700f2
:1008a0004f05be004f04be0000000600c70ade0070
:1008b000f107b200f50fb20008003200e1cf4200ac
:1008c000020032000170a00024000500810f7000ba
:1008d000010032000408050044000500810f70008b
:1008e00002003a00140005008502e9000000400003
:1008f00081c04800fcff3b000170a00024000500ff
:10090000889fbe00000478001800900082047800e0
:10091000808f5400010036008004780018007800b1
:100920000901780069030700188c44001800900042
:100930008904500019049800080078004f04be0094
:10094000000006000400fa000100e00003003a0085
:100950000f80e900e0bf9f0002003700e0bf9f006a
:100960008100e900f1bf9f00ec8157002fb997008b
:10097000e48057000048200004000700efb897000b
:100980008048eb000080fa00000006006200fa00d8
:10099000889fbe008a1f78000005780081047800d7
:1009a000020478008300780080f92f000f004000d7
:1009b0003f0407009a979f00a9979f000000eb0053
:1009c000b09f9f001885fb008a04fb000a05ea001f
:1009d0004f55de0050022000808f54000d00320081
:1009e000e10f55000b003a000a01780088007800fa
:1009f0002f9097009f91970003000100a0979f0000
:100a00000000e0008e0032003f9897000000e800f0
:100a1000b09f9f000a04440050022000808f5400c1
:100a2000040032000900e000e6ff3a003f9897001a
:100a3000840037000000eb00909f9f00809f9f0084
:100a4000f0979f00e0979f00d0979f00c0979f006e
:100a50000700370081cd2000010050000000400059
:100a6000c1cc200061007800df9897000100700081
:100a7000d09f9f00880478000904780038457800ea
:100a80008a00fb0080cd2000170307000000e00073
:100a9000f0ff3a00a1c2b300814f55000e003a00aa
:100aa000cf8897000180e900c08f9f001000780078
:100ab000c09f9f000000e00005003d000000ea002c
:100ac000c09f9f005f9897000020a000d09f9f00cc
:100ad0000904e8000f003700c09f9f000000eb00f2
:100ae00005003700f2ff2700820f5000020032009d
:100af0006a01b90002804000090478008804780087
:100b0000b900fb000103b100e98f5000f5ff36008a
:100b1000c09f9f00e0c2b300984f10000200320057
:100b20000080eb0019003700a0c2b300d84f1000be
:100b300007003a00cf8897000180e900c08f9f002e
:100b400010007800a09f9f000804e8001000370004
:100b50000000eb00a09f9f00880078000500370090
:100b6000f3ff2700830f5000020032006a02b90031
:100b70000400410001047800880078003101fb0086
:100b80000203b100e90f5100f5ff3600a09f9f005e
:100b9000984478008900fb0040cc2000d202070076
:100ba0000000e000020032000804e8000100370005
:100bb0008044eb00c97f9f0080c6b30080cf540003
:100bc00004003a0098cf14000a003a006640500032
:100bd00006003700c0c6b30080cf540005003a00bd
:100be00098cf140003003a0065404000c07f9f008a
:100bf0000804e8001801fb00e3fb2f008f8141008f
:100c000081f92f008f804000a0f92f000f004000d5
:100c1000100007000000e00009003a00e1fb2f008f
:100c20008f804000a0f92f000f004000e402070071
:100c30000000e000020035000804e80061ff370012
:100c40000080eb004f0578004f04be000080fa00e2
:100c500000000600889fbe008a1f7800000478000c
:100c6000824478000305780070c4b30080cf54003c
:100c70000a003c0000c0e90080cf54000f003d0096
:100c800050c2b30080cf5400350032007c40400099
:100c900080cf540035003a000800370010c6b3007a
:100ca00080cf54000500320030003500b0c9b300d9
:100cb00000c04400e24f50002c003e00286190002c
:100cc000c0c4b300804f510006003a001101780003
:100cd00068005100800878005001be004000be004e
:100ce0000500370011017800640051008008780089
:100cf0001000be0074040700009cbe000294be00f9
:100d0000b8009000780090000100e00002003d0073
:100d1000d1c2b30008003700881090000118a3006a
:100d200002003200b1c2b300030037000108a30083
:100d30000400320001c2b300017578000000e80031
:100d40007004980078009000000545006a0498003f
:100d50008900fb0008007800100007000b00370036
:100d60007800900009757800060037007800900040
:100d7000000545000904e00001003a0059c2b30033
:100d8000094d78000000e800700498000000eb00b6
:100d90004f0578004f04be00000006002f04b0008d
:100da000889fbe008a9fbe008c9fbe008e1f780069
:100db0000007780081f79f003e04be002e05be00ac
:100dc0005e0890000000e00002003d00600020008e
:100dd000500f98008e00780020fb2f000f0040007d
:100de0004d020700e20f50000a003a0030002000d8
:100df000100f9800b1c9b3000ff097008140400078
:100e000000c72000e1cf50000d003e00c0c620000a
:100e10000b0037000000e0000f003400300020001d
:100e2000100f9800b1c9b3000ff197008140410045
:100e300080c72000e1cf500001003e0040c72000e5
:100e4000ee009000b0487800b0687800104078005c
:100e500090409800f30037000000e00005003a00e1
:100e600022fb2f000f014100001978008001eb00e8
:100e7000e70037006022b8006033b8000800be0009
:100e80000a01be00580307000000e00001003d0019
:100e90000bf0a200705927009f9897000088b900b6
:100ea000026a280013002000b30307006406500004
:100eb0009c9f9f0013003b0063061600c0ff2f009d
:100ec000000666008c01ea00939f9f00cdc72000ba
:100ed0000800be000a01be00070037000c08a3008e
:100ee000030032003d02be002d03be004404070093
:100ef0000c86d100e88646000c00e000f7ff3c00bd
:100f0000180037000c00e00018003200c0ff2f006e
:100f1000000666009c9f9f00cdc720006000b800bf
:100f20000200200003ff2300070037000c08a30085
:100f3000030032003d02be002d03be003004070056
:100f40000c86d100e88646000c00e000f7ff3c006c
:100f50000002be000203be000800be000a01be007f
:100f60002b0307000004be000205be00de0890004f
:100f700060c6b3000ff29700804f520004003200a9
:100f80006000200062c4b300824f520002003a00a9
:100f90009f9a97006a80420081004000f1b79f004d
:100fa00001037800f30f53000200340037012000e2
:100fb000f7b79f0000c3b300c0779f0056fb2f0018
:100fc0000f0343000e007800a0b79f0006077800cb
:100fd0003d0037000800be000a01be00d90307002b
:100fe0000006be007fb1970068015100f2b79f0074
:100ff0004240a9000c003400fe0307000002be00be
:101000000203be000800be000a01be007204070011
:101010006022b80046782d0077192400f8030700f5
:101020000004be000205be00e80047008e0020005c
:101030000802be000a03be00b4b79f00c5b79f00f8
:10104000d6b79f00e7b79f000c01be0001047800ef
:101050000c003700a400200005002000c0fd2f0078
:101060000f004000840107006fa89700ffa89700b9
:101070000fb197009fb1970005c3b300056441000d
:101080000001be00e00f5100e08f59000300340062
:101090000e07e900e10f4700eeff3a0088007800f4
:1010a0003fb49700cfb497005fb59700efb59700b6
:1010b0000200370000c3b300806078000e07e9002b
:1010c000fcff3b00688740007fb397000600e0000c
:1010d000070034006022b8006033b8000800be008a
:1010e0000a01be00c50207000000e000b9ff3c0095
:1010f0000e0378002fb7970051fb2f008f80400020
:10110000010353009f9b970067804300909f9f00bf
:10111000020037000603e9000000e9000101780041
:101120008200780003c3b300b1cf1100f9ff320091
:10113000909f9f00de09900061c6b3000ff29700f8
:10114000814f52000300320061c4b300814f52004e
:1011500002003a000000e8000a00370010002000fa
:1011600051c6b3008ff2970081cf520005003200c4
:101170000540780050c4b2000080fb000000e90088
:101180004f00de0083014000868f510001003400d3
:10119000860178000300e0001d00350000c3b300a5
:1011a000868f510006003d0062c279006940400010
:1011b00041c3b300814f520001003c006940500020
:1011c0008300e900810041000100370084017800bc
:1011d0000302e90001037800a142780080cf5200a9
:1011e000faff320091c3b300814f500001003a0072
:1011f000054be8000400e00005003d000201e900a5
:101200008301e8001f9b97000603e800969f9f005c
:101210008ff397008700fb001f9a97000e0078005d
:10122000060007004f0778004f06be004f05be00be
:101230004f04be002f04b10000000600f0874700f5
:10124000889fbe008a9fbe008c9fbe008e1f7800c4
:1012500000047800814478000205be00040678008e
:101260000b00e00002003c001b002000eacd200043
:1012700060c6b30080cf54000e00320060c4b300db
:1012800080cf54000b00320070c6b30080cf5400f2
:101290000300320070c4b30080cf540081003a00d4
:1012a000e40f46007f00350058089000800f56007c
:1012b0007c003d000c06e80060c6b30080cf5400ff
:1012c0001000320060c4b30080cf54000d00320023
:1012d000081090000038a30004003a00580890005d
:1012e000808f550001003d005b0c9800580890006d
:1012f0000c005000500c980002003b000000eb0076
:10130000500c980018089000e80090000c00e000d5
:1013100026003c0002c3b300827078000000e800a1
:10132000100c9800d80890000100e00003003c0079
:10133000881090000138a30005003200e8009000fa
:10134000e2c2b300827078000000e800100c980040
:10135000580890008c00ea00810f500001003d0009
:101360000006ea008c00ea00210c98000006460006
:101370005c0c98008b0f5600010034000b067800bf
:101380003c0c9800e8009000180890000080400095
:101390000c0178008a007800cc0007005808900003
:1013a0000c0650004c0c9800900037008c8f5500b4
:1013b00018003d00008040000b0178008a00780092
:1013c000c20007001808900000804500100c98002b
:1013d0008b0556002b0c9800d80890000100e00007
:1013e00003003c00881090000138a3000600320082
:1013f000e8009000e2c2b3008270780038089000e4
:101400000000e800300c980058089000400c98004c
:1014100076003700008040000c0178008a007800d8
:10142000aa0007001808900000004600100c980061
:101430008c855500d80890000100e00003003c00b6
:10144000881090000138a30005003200e8009000e9
:10145000e2c2b300827078000000e800100c98002f
:1014600058089000808f55000100340080057800f6
:10147000e800900018089000008040008c004500b3
:101480000b01780091000700180890000b00400045
:10149000100c9800580890008b0550002b0c9800f9
:1014a0005200370018089000e80090009a70780009
:1014b0000000e800100c9800d80890000100e0003f
:1014c00003003c00881090000138a30005003200a2
:1014d000e8009000e2c2b300827078000000e800eb
:1014e000100c9800580890000000e0001000340034
:1014f0008b05e900808f55000100340080057800dd
:10150000e800900018089000008040008a00e80081
:101510000b0178006d000700180890000b004000d8
:10152000100c9800580890008b0550002b0c980068
:10153000e8009000180890000080400009587800ea
:101540000007e8000c00e00004003500b1c2b30061
:10155000014878008e04780004003700d1c2b3003f
:10156000014878008e0478000c06ea007d8557005b
:101570008006eb0009003700a20020008c007800f4
:1015800072805700310007007fb097008fb8970036
:10159000016d7800000678008d06e8000c00e00080
:1015a000f5ff3c000d00e00009003a008e047800d1
:1015b00000c3b300805c7800050037008d06e900a9
:1015c000fc80570061c07e0002c3b300825c400013
:1015d0000d00e000f9ff3c00e800900018089000c2
:1015e0000080400080845400390c9800081090005e
:1015f00074006000f00f50000e003a009808900050
:101600007800900000804000a80890000100400091
:10161000b808900001004000c80890000100400098
:10162000f8089000810f500002003d00008050003b
:10163000000c98004f0778004f06be004f05be0013
:101640004f04be000f01b1000000060080027800c8
:1016500001037800110009000203d800800178001e
:10166000830a78000299b90002015300920298009f
:101670000500780000000600881f78008a9fbe00e1
:101680008c9fbe00000478000205be000406be0068
:101690000401be000a00be00b7010700008cbe00b6
:1016a0000c01be00de0207000005550081855d00cb
:1016b0002a0498003b049800080078004f06be00fa
:1016c0004f05be004f04780000000600800178003e
:1016d00002003700b15978000201e9000200e00081
:1016e000fcff3a0000000600020037000304e0009f
:1016f000060032000001780002007800b041780056
:1017000081cf5100f9ff3a00010037000001eb00e2
:101710000200780000000600889fbe0000047800e8
:10172000e68440001900d0004500de00f27f200072
:10173000820f500010003a00000ceb009904780072
:101740006f816400200020001b003a0021019000fe
:101750000200e00018003a00110190000200e000d1
:1017600015003a00100020001100e00012003200c5
:1017700020002000100037000000e00004003a00c4
:1017800001007800cc0007000000e00008003c00e9
:10179000f20028001901610001fe2300810c710094
:1017a00021c02f00010c40000080eb000200370038
:1017b000000ceb000000eb004f04be000000060030
:1017c0000400fa00889fbe008a9fbe008c1f78002c
:1017d0000004780001067800f80d90007800900071
:1017e00080855500080890008085550018089000f5
:1017f00080855500280890008085550038089000a5
:101800008085550048089000808555000002220020
:1018100090bf9f0000032300a0bf9f00081090000e
:101820000028a30015003a000b00e000130034006c
:101830000b0578008a047800e20f5500010036009d
:1018400029002000c801900009017800ee805700af
:101850005800900003000100500498000000e000d0
:101860008c0032006808900009004000600c98006d
:10187000090555004240a900eeff3c0078019000a8
:101880000200e0000c003400c80190008c007800d9
:101890005800900003000100500498008080eb0085
:1018a0000000e0007c003200e80890007800900022
:1018b00000804000600c9800880c90000900e00057
:1018c0001100340009057800e28f54000100360051
:1018d0002a002000c80190000a017800ec8057001f
:1018e0005800900003000100500498000000e00040
:1018f00068003200680890000a004000600c980000
:101900008a845400edff3700180990000200e000bf
:101910000c003400c8019000e800900058009000ce
:1019200003000100500498008080eb000000e000fc
:1019300059003200e808900018089000008040002c
:10194000600c9800a80c90000900e0001100340021
:1019500009057800e28f5400010036002a002000bb
:10196000c80190000a017800ec80570058009000f0
:1019700003000100500498000000e0004500320020
:10198000680890000a004000600c98008a845400a7
:10199000edff3700380990000200e0000e0034002f
:1019a000e80090001808900080804000c801900076
:1019b0005800900003000100500498008080eb0064
:1019c0000000e00034003200e80890003808900081
:1019d00000804000600c9800c80c90000900e000f6
:1019e0001100340009057800e28f54000100360030
:1019f0002a002000c80190000a017800ec805700fe
:101a00005800900003000100500498000000e0001e
:101a100020003200680890000a004000600c980026
:101a20008a845400edff3700081090008000eb001e
:101a30000028a300180032000b00e000160034005c
:101a40008b04780009057800e28f5400010036000d
:101a50002a002000c80190000a017800ee8057009b
:101a60005800900003000100500498000000e000be
:101a700008003200680890000a004000600c9800de
:101a80008a8454004240a900eeff3c008000eb0035
:101a9000010037008080eb00010078004f067800dd
:101aa0004f05be004f04be000080fa000000060093
:101ab0000108780000000600e600400011017800ef
:101ac00005002800850261006f016100820878002e
:101ad000020032001200200011003700a001900027
:101ae000120020000300e0000d003a009001900079
:101af0000300e0000a003a001000e00008003a008d
:101b000036003700640340009608780080017800b2
:101b1000530b780090097800040878007001510098
:101b2000110278000400e000f6ff320013003700d5
:101b300064024000140378004f33de0083814100cb
:101b40008308730080017800d3037800cf3bde0068
:101b50001403780006034300068a7300130278001a
:101b600004024200100378004f33de008609720041
:101b700090017800038841000201e900910178009a
:101b8000ef8f5100eaff3600100037008001780027
:101b9000530378004f33dd001002d10004087300b6
:101ba0006402400094037800cf3bdd001303d100b2
:101bb00086897300110378004f33dd009401d10052
:101bc000030a73009108d1000201e8009101780036
:101bd000ff8f5100edff3e00ef8861009188720099
:101be00002007800000006008f1fd10010020700dd
:101bf0008f87e9000000e00000000600809feb00f6
:101c00000b0207008f87e9000000e00000000600db
:101c10002800fa00889fbe008a9fbe008c9fbe00ed
:101c200003866b008f0007006400e100440032006f
:101c30006408e1004a0032006100e1004600320021
:101c40006108e10049003200ec0647006000b8007e
:101c50003d02be003d03be00f48657006011b8008f
:101c60003d04be003d05be007d0320000b00370093
:101c70000000a0008d06e9001300320004024200bb
:101c800085824a0006034b0087834b00000040001a
:101c90008180480002014900838149000802520006
:101ca00089825a000a035b008b835b00f0ff3b00d4
:101cb0000802420089824a000a034b008b834b00d2
:101cc0008d06e900edff3a00848272008682720080
:101cd000f707b20087827200010032001500200071
:101ce0001e0490003e0b900006035400e63fb00037
:101cf0000368a300070032000000a7000500a00051
:101d00008301d1000281d3008180d3000080d30001
:101d10000603e8008301d1000281d3008180d30053
:101d20000080d3000002eb000482d20021000700f3
:101d300003f0a1000cf0a70003f0a0005d00370045
:101d4000640247006408e100570032003400be001e
:101d50003401be00f6ff37006108e1005200320096
:101d60006011b8006000b800f1ff370003ff2700e2
:101d700002002000fbff3700839f68000100e000a5
:101d800002003d0060001000e08018000300e00049
:101d900002003d0060011100e08119001001070000
:101da0004f00e00002003b0060001000e0801800df
:101db000000006001800200057002000080453000f
:101dc0000d003d000600200097fc2f000740e100b9
:101dd0001e00340084827200610260008301d10021
:101de0000281d3008180d3000080d3000804e80082
:101df000f8ff3a0047002000610460000504740009
:101e0000040464000d00320061004000e0804800de
:101e100060014900e081490003b8a50007003200d5
:101e20000603e8006538e10004003a008301d100b0
:101e30000281d3008180d3000080d300f87f20008e
:101e40000830e10003003500080378006000b800a6
:101e50006011b8004433dd00f300b2008301730069
:101e600000000600680447000294be000094be0013
:101e7000fc0447008694be008494be0009007800ec
:101e8000b401070008007800b2010700990078004b
:101e9000814f70000b003b000800be008d01070061
:101ea0004f00b10003003700f3ff2700f2ff2f00bf
:101eb0006110b9004f06be004f05be004f04be00c2
:101ec0000080fa00000006008103780077fa07001e
:101ed0000001be006000b8000478a30013003a00bf
:101ee0006220e10015003e000d0039008301d100a1
:101ef0000281d3008180d3008301d1000281d3000d
:101f00008180d3008301d1000281d3008180d3007e
:101f10000538b000c42add00f300b20083817200ee
:101f200007f0a70003f0a00000000600f3ff270061
:101f3000f2ff2f006110b900fbff370003ff2700fd
:101f4000f7ff37001400fa00889fbe008a9fbe008a
:101f50008c9fbe000004be000205be006800470062
:101f60000a90be000890be007a0107000070a7002a
:101f70000bf0a100304320009e02900080825200ae
:101f8000b0fe2f000028e10011003d00b0fc2f0042
:101f90000028e100150034001e0990008e08900012
:101fa0007e0090000501b0000201d1008180d300c5
:101fb0000080d3008502e800fbff3a000b00e00040
:101fc000bcff3b0060001000e0801800b9ff370044
:101fd000f0ff2f00f1ff27000b00e000b5ff3b00f2
:101fe0000100280000002000b2ff37006000b800a8
:101ff000b0ff37004f89de00820178007c01370096
:102000002800fa00889fbe008a9fbe008c9fbe00f9
:1020100003866b0093ff07000028a30064003a00ca
:102020000128a30067003a000008a30062003a00fc
:102030000108a30065003a001e009000be08900051
:1020400081064000ed3fb100f4805700ee019000a2
:10205000111ab8008e099000311bb8009e0990003b
:10206000311cb800511db800f48557004600070028
:10207000fe0190003a0007008b85e8003e00070053
:102080008e09900040000700ee0190003400070028
:102090008b85e800380007008e099000400007009b
:1020a0009e0990001b18b800890440000a8548006a
:1020b000fe019000340007008b85e800380007001f
:1020c000ee019000300007008e0990001b18b80048
:1020d000890440000a8548000a98a30008003a00d5
:1020e0000402420085824a0006034b0087834b00ae
:1020f00008044c0089844c000a054d008d06e90057
:1021000084827200850273004c3add008502720001
:102110000100320015002000443ade001400b20035
:102120004538de00cb45dd000b007000c540de0009
:10213000cb4ddd008b8070004549de00cb55dd00c6
:102140000b017100c551de000d03780019ff070077
:1021500003f0a1000cf0a70003f0a00055ff37002a
:102160001b18b8008502400006834800e0834b003e
:1021700060044c00070037001b18b800060340003d
:1021800087834800faff37001b18b8008703400018
:1021900008844800e0844c0060054d000000060003
:1021a0001b18b8000804400089844800faff370073
:1021b0000108a3003cff3a005800be005801be00d1
:1021c000e3ff37000008a30037ff3a000904780056
:1021d000f9ff37000000000007f0a20016003700ea
:1021e0006022b800060220000000d0008180d200ea
:1021f0000482d2008582d2000000a00002025200b8
:1022000083825a00030031000202420083824a00a6
:102210000000a1000603e900f3ff3a0000000600f9
:10222000020ab900001bb9000200b8008100420098
:1022300081004300000006002800fa00889fbe00cd
:102240008a9fbe008c9fbe000706780087866900c3
:102250000c003b00030478008704780008f0a1001c
:1022600009f0a100840f5000858f5800860f590097
:10227000890f5c00030033000cf0a20001003a005b
:102280000cf0a100f7fe07006400e1005f003200df
:10229000780147006408e100610032006c014700ea
:1022a000748557003200be001201be003a04be0021
:1022b0001a05be001e039000be0a9000850353005d
:1022c00006003d000004fd008104fd000205fd0044
:1022d0008305fd008703ea00050378000df8a300dd
:1022e0000400320060041400e0841c0060051d003e
:1022f000e0851d006022b8007d0320000d38e1005c
:102300008006eb000b0039004433dd00f300b2001f
:102310008301730039003700848272000d02780057
:10232000e10664008b85d1000a85d3008984d3003f
:102330000884d3008703e900f7ff3b000800400052
:10234000898048000a0149008b81490004003b0054
:1023500060001000e080180060011900e0811900a1
:102360000358a300090032008d827200848272003b
:10237000610260008301d1000281d3008180d3001b
:102380000080d3000603e8001b0037000348a300c9
:1023900017003a000600e000170034000603e900c9
:1023a0000d00a300000048008180480002014900a0
:1023b000838149000348a3000f003a000600e000b3
:1023c000090034000603e900000040008180480055
:1023d000020149008381490001003a000003eb003b
:1023e0000348a300f5ff32006022b8000200370066
:1023f00084827200618266006efe070003f0a10015
:102400000cf0a70003f0a000aafe3700640147000b
:102410006408e10002003a000df8a300a2fe3a00b1
:102420003200be001201be00a2fe37000000000014
:10243000889fbe008a9fbe008c9fbe000404be0021
:102440000605be00809fbe00829fbe002f000700d1
:10245000040678000800be000a01be002b00070039
:10246000840678004f03be004f02be008d4f7600f9
:102470007fb0970013003300f0ff2f008b8f6b00ad
:1024800006003b000d0666000c00a7000a0037009e
:1024900007f0a600100020000a003700880f520045
:1024a000898f5a008a0f5b008b8f5b000300390015
:1024b0001000200001003e000000200007f0a700ef
:1024c0000000ea004f06be004f05be004f04be00ec
:1024d00000000600e48240001078a30007003200ec
:1024e000640240001178a3003400be001401be0055
:1024f000040032000330a700000006003500be00d3
:102500001501be000330a0000000060005ff2700f3
:1025100005826100070032000428e100010032005a
:10252000240005000600070001003a0044000500f1
:102530000408050002000700f9ff3a001400050036
:102540006f82610081027000850271008502720055
:1025500000000600800078005002be005003be005c
:102560004439de00f700b200f37f20000301610070
:10257000090032000218e10016003a0085017200dd
:1025800083017300838173000008200015003a0066
:1025900040002000130037008501720083017300a2
:1025a0008381730005003a0004a8be0006a8be009f
:1025b000100020000b0037000201e9000402420075
:1025c00085824a0006034b0087834b000748a3001f
:1025d000f9ff32000740a00004a8be0006a8be0014
:1025e0002000200080009800920098000000060063
:1025f000881f7800030478000300e00007003d0016
:1026000060001000e080180060011900e0811900ee
:1026100002003b0001f02d0003003700040007001a
:1026200008f0a70003f0a0004f04780000000600a7
:10263000889fbe0000827000040271000482710055
:102640002400320036432000c50020008383cf00e1
:102650000a0039000541b1008283cf00070039002c
:102660000541b1008183cf00040039000541b1006c
:102670008083cf00010039000541b10085c35300bc
:102680006022b800120032000a003b00848272000f
:10269000610260008301d1000281d3008180d300f8
:1026a0000080d3000603e8008743e800f7ff3a0004
:1026b0000700370000004000818048000201490007
:1026c000838149000603e9008743e900f9ff3a00e6
:0c26d000b8fd07004f04be00000006002b
:020000040000fa
:1026dc0001000000015e000003060000000600007f
:1026ec00052800007c2800007c2800000524000040
:1026fc002a7f00002a100000036200001846000028
:10270c00053000004c5a0000245000000106000067
:10271c00023c000042020000423c00000528000080
:10272c00107c00001028000003100000381000007e
:10273c0001c0000003100000101000000140000058
:10274c000360000018060000043c00004242000038
:10275c003c030000447e0000400400004462000082
:10276c00524c0000034a00004a340000041e0000d2
:10277c00107c0000100300004e4a000032040000e0
:10278c003c4a00004a30000003620000120e0000b8
:10279c00043400004a4a0000340400000c520000cb
:1027ac00523c000001480000028000006803000059
:1027bc001028000044030000282800002803000013
:1027cc004428000010030000025200000c05000019
:1027dc003c420000522a00003c0400007c12000025
:1027ec00127c0000047e00004a4a00003404000001
:1027fc003c42000042240000047e000042420000e3
:10280c003c0300007e4a00004a0300007e0a0000e0
:10281c000a0400003c42000052340000047e000018
:10282c00080800007e030000427e00004203000006
:10283c00424200003e0400007e08000014620000ca
:10284c00037e000040400000057e000004080000ec
:10285c00047e0000057e000004180000207e0000ad
:10286c00043c0000424200003c0400007e120000c8
:10287c00120c0000043c000042420000bc040000aa
:10288c007e120000126c0000044400004a4a000052
:10289c0030030000027e0000020400003e400000f5
:1028ac00403e0000050600001860000018060000fd
:1028bc00053e0000403e0000403e00000542000086
:1028cc002418000024420000049e0000a0a0000078
:1028dc007e040000625200004a460000027e0000a6
:1028ec00420300000618000060020000427e000057
:1028fc0003200000102000000480000080800000f5
:10290c008002000004080000042000005454000061
:10291c00780400007e4400004438000004380000b5
:10292c00444400002804000038440000447e0000a9
:10293c000438000054540000580200007c0a0000c7
:10294c0004980000a4a400007c0400007e04000095
:10295c0004780000017a0000024000003a040000f4
:10296c007e10000028440000017e0000057c000061
:10297c000478000004780000047c000004040000cb
:10298c0078040000384400004438000004fc0000c7
:10299c0024240000180400001824000024fc00006b
:1029ac00027c000004040000485400005420000085
:1029bc00030400003e440000043c000040400000c2
:1029cc003c0500000c300000403000000c050000fd
:1029dc003c4000003c4000003c0500004428000046
:1029ec0010280000440400009ca00000a07c000003
:1029fc0003640000544c0000030800003641000042
:102a0c0001ff000003410000360800000420000014
:102a1c00102000001000000000000000000000006a
:102a2c00000000000000000000000000000000009a
:102a3c00000000000000000000000000000000008a
:102a4c0000000000000000000000000000fe00007c
:102a5c001b0000000000000000000000000000004f
:102a6c00000000000000000000000000001e00003c
:102a7c00000000000000000000000000001e00002c
:102a8c00000000000000000000000000000000003a
:102a9c000120000019a000000778000001260000aa
:102aac0019a000000778000001260000012000009a
:102abc00010000000000000000000000001c0000ed
:102acc00182600001042000010ff00003f8200009a
:102adc00110200000f00000000000000001c0000ac
:102aec00102200000822000004220000039c0000b9
:102afc00004000000e30000011080000110400001e
:102b0c00110200000e00000007800000085c0000ad
:102b1c001062000010a2000011320000131c000013
:102b2c001c000000180000001680000001000000ce
:102b3c00000000000000000000000000001e00006b
:102b4c000000000000000000000000000000000079
:102b5c000000000000000000000000000000000069
:102b6c0000e0000007180000180c00003004000002
:102b7c0020020000400200004000000000000000a5
:102b8c00000200004002000040040000200c000085
:102b9c003018000018e000000700000000000000e2
:102bac0000000000000000000008000000180000f9
:102bbc0000f00000004e000000f0000000180000c3
:102bcc0000080000000000000000000000000000f1
:102bdc0002000000020000000200000002e0000001
:102bec001f000000020000000200000002000000b4
:102bfc0002000000000000000000000000000000c7
:102c0c0000000000980000007800000000000000a8
:102c1c0000000000000000000000000000000000a8
:102c2c000000000000000000010000000100000096
:102c3c000100000001000000010000000100000084
:102c4c000000000000000000000000000000000078
:102c5c000000000018000000180000000000000038
:102c6c000000000000000000000000000000000058
:102c7c000000000040000000300000000c000000cc
:102c8c0003c0000000300000000c00000002000037
:102c9c00000000000000000000f00000030c000029
:102cac000c0200001002000010020000100c0000ca
:102cbc000cf0000003000000000000000000000009
:102ccc0000040000100400001004000010fe0000be
:102cdc001f00000010000000100000001000000099
:102cec0000000000000000000006000018020000b8
:102cfc00140200001202000011c20000103c00007f
:102d0c0010000000000000000000000000000000a7
:102d1c000000000000020000104200001042000001
:102d2c001042000010bc00000f000000000000006a
:102d3c00000000000000000003c0000002200000a2
:102d4c00021800000204000002fe00001f00000038
:102d5c000200000002000000000000000000000063
:102d6c0000000000003e00001022000010220000b5
:102d7c001042000008820000070000000000000064
:102d8c00000000000000000000f00000074c0000f4
:102d9c000822000010220000102200001042000047
:102dac000880000007000000000000000000000088
:102dbc0000020000000200001802000007c2000020
:102dcc0000320000000a00000006000000000000b5
:102ddc000000000000000000001c00000fa200001a
:102dec00104200001042000010a2000010a20000cf
:102dfc00091c00000600000000000000000000009c
:102e0c000078000000840000100200001102000095
:102e1c0011020000118400000cf8000003000000f7
:102e2c000000000000000000000000000000000096
:102e3c000060000018600000180000000000000096
:102e4c000000000000000000000000000000000076
:102e5c00000000000000000000600000986000000e
:102e6c0078000000000000000000000000000000de
:102e7c000000000000000000000000000000000046
:102e8c0003000000038000000480000004400000e8
:102e9c0008400000082000001000000000000000a6
:102eac00008000000480000004800000048000000a
:102ebc0004800000048000000480000004800000f6
:102ecc000400000000000000002000001040000082
:102edc00084000000880000004800000040000008e
:102eec0003000000030000000000000000000000d0
:102efc00000e000000020000000200001b82000017
:102f0c000042000000260000001c00000000000031
:102f1c000000000000f00000031800000c0400008a
:102f2c0018e2000013120000140a0000168a0000b8
:102f3c001bfc00000700000004000000040000005f
:102f4c00100000000e80000003700000021800004a
:102f5c000230000002c0000002000000030000006c
:102f6c000c0000001000000000f800001f8800009a
:102f7c001088000010880000108800001048000025
:102f8c00113000000e0000000000000000c0000026
:102f9c00033000000c1000000808000010080000ae
:102fac0010080000100800001018000010000000ad
:102fbc00000000000000000000f800001f080000e6
:102fcc00100800001008000010080000101000008d
:102fdc0008e00000070000000000000000000000f6
:102fec0000f800001f080000110800001108000084
:102ffc00110800001108000011080000100000006a
:10300c00000000000000000000f800001f08000095
:10301c000108000001080000010800000108000080
:10302c00010800000000000000000000000000008b
:10303c0000c00000033000000c1000000808000065
:10304c001008000010080000110800001118000002
:10305c001f0000000000000000f800001f0000002e
:10306c000100000001000000010000000100000050
:10307c0001f800001f00000000000000000000002c
:10308c0000080000100800001008000010f80000f4
:10309c001f080000100800001008000010000000bd
:1030ac000000000000000000000000000000000014
:1030bc0010080000100800001008000010f80000b4
:1030cc000f000000000000000000000000000000e5
:1030dc0000f800001f80000000800000014000008c
:1030ec00022000000410000004080000080000008a
:1030fc00100000000000000000f800001f0000009d
:10310c001000000010000000100000001000000073
:10311c0010000000100000000000000000f800008b
:10312c001f38000000e00000010000000700000054
:10313c0006c000000138000000f800001f0000006d
:10314c00000000000000000000f800001f1000004c
:10315c00006000000080000001000000060000007c
:10316c0008f800001f000000000000000000000034
:10317c0000e0000007100000080800001008000024
:10318c0010080000100800001010000008e00000fb
:10319c00070000000000000000f800001f080000fd
:1031ac00010800000108000001080000018800006f
:1031bc000070000000000000000000000000000093
:1031cc0000e00000071000000808000010080000d4
:1031dc0010080000100800003010000048e000004b
:1031ec00470000000000000000f800001f0800006d
:1031fc0001080000010800000388000004700000b2
:10320c00080000001000000000000000000000009a
:10321c0000700000184800001088000010880000a2
:10322c001008000011080000091800000e00000032
:10323c00000000000008000000080000000800006a
:10324c000008000000f800001f0800000008000043
:10325c000008000000080000000000000000000052
:10326c0000f800000700000018000000100000002b
:10327c00100000001000000008f80000070000001b
:10328c0000000000000800000030000000c000003a
:10329c0001000000060000001800000018000000eb
:1032ac0007c00000003000000008000000180000fb
:1032bc0000e00000030000001c0000000fe0000014
:1032cc0000c00000010000000e0000001ce0000027
:1032dc000318000000080000101000000820000077
:1032ec00044000000280000001800000014000004a
:1032fc000220000004100000080800001008000064
:10330c0000100000006000000080000000000000c1
:10331c001f80000000400000002000000010000092
:10332c000008000000000000000800001808000061
:10333c00140800001208000011880000104800005a
:10334c001028000010180000100000000000000001
:10335c00000000000000000000fe00007f020000e2
:10336c00400200004002000040020000400000004b
:10337c00000000000000000000020000000c000033
:10338c000030000000c0000000000000030000003e
:10339c000c000000300000004000000000000000a5
:1033ac000002000040020000400200004002000049
:1033bc0040fe00007f000000000000000000000044
:1033cc0000000000000000000000000004000000ed
:1033dc0003e0000000380000000e00000070000048
:1033ec00008000000300000004000000000000004a
:1033fc002000000020000000200000002000000041
:10340c002000000020000000200000002000000030
:10341c002000000020000000000000000000000060
:10342c00000000000001000000020000000000008d
:10343c000000000000000000000000000000000080
:10344c00000000000c2000001220000011200000e1
:10345c001120000009c000001f0000001000000037
:10346c00000000000000000000fe00001f400000f3
:10347c000820000010200000102000001060000048
:10348c0008800000070000000000000000000000a1
:10349c000080000007400000082000001020000001
:1034ac001020000010200000102000001000000070
:1034bc000000000000000000008000000740000039
:1034cc001820000010200000102000001040000008
:1034dc0008fe00001f0000000000000000000000bb
:1034ec0000800000074000000920000011200000af
:1034fc00112000001120000011c00000110000007c
:10350c00000000000000000000200000002000006f
:10351c0000fc00001f24000000220000002200001c
:10352c00002200000022000000000000000000004b
:10353c000080000007400000982000009020000050
:10354c00902000009040000048e000003f00000088
:10355c00000000000000000000fe00001f800000c2
:10356c0000400000002000000020000000200000af
:10357c0000c000001f000000000000000000000060
:10358c0000200000002000000026000000e60000e3
:10359c001f00000000000000000000000000000000
:1035ac00000000000000000000000000802000006f
:1035bc00802000008026000080e600007f000000d4
:1035cc0000000000000000000000000000000000ef
:1035dc0000fe00001f00000001000000038000003e
:1035ec00044000000440000008200000100000000f
:1035fc0000000000000000000000000000020000bd
:10360c00000200000002000000fe00001f0000008d
:10361c0000000000000000000000000000e00000be
:10362c001f400000002000000020000000c000002f
:10363c001f400000002000000020000000c000001f
:10364c001f0000000000000000e000001fc0000090
:10365c0000400000002000000020000000200000be
:10366c0000c000001f00000000000000000000006f
:10367c00008000000740000008200000102000001f
:10368c00102000001040000008800000070000001f
:10369c00000000000000000000e00000ff400000ff
:1036ac000820000010200000102000001060000016
:1036bc00088000000700000000000000000000006f
:1036cc0000800000074000001820000010200000bf
:1036dc00102000001040000008e00000ff00000077
:1036ec0000000000000000000000000000e00000ee
:1036fc001f8000000040000000200000002000009f
:10370c0000e00000000000000000000000000000cd
:10371c0000c0000018200000112000001120000043
:10372c0012200000122000000c000000000000001d
:10373c00000000000000000000200000002000003d
:10374c0000f800000f2000001020000010200000e6
:10375c00102000001000000000000000000000001d
:10376c0000e000000f00000010000000100000003e
:10377c001000000008e000001f0000000000000026
:10378c00000000000020000000c00000010000004c
:10379c000600000018000000100000000c000000e3
:1037ac0003c00000002000000000000000600000ca
:1037bc000080000007000000180000000ec0000090
:1037cc0001800000010000000e00000018800000c5
:1037dc000760000000000000002000001040000006
:1037ec0008800000040000000300000003800000bb
:1037fc000440000008200000100000000020000021
:10380c0080c0000080000000830000004600000023
:10381c0038000000180000000600000001c0000085
:10382c00002000000000000000200000102000001c
:10383c0018200000142000001220000011a000002d
:10384c0010600000102000001000000000000000bc
:10385c0000000000000000000100000001fc00005e
:10386c003e02000040020000400200004000000048
:10387c00000000000000000000000000000000003c
:10388c000000000000fe00007f00000000000000af
:10389c00000000000000000000000000000000001c
:1038ac000000000000020000400200004002000086
:1038bc0040fc00003e000000010000000100000080
:1038cc0000000000000000000380000000800000e9
:1038dc00008000000000000001000000010000005a
:1038ec000200000002000000028000000100000045
:1038fc00008000001fc0000010200000101000000d
:10390c001020000010c00000108000001f000000fc
:10391c000000000000c00000033000000c1000008c
:10392c0008080000100800001008000090080000b3
:10393c00b0180000d00000000000000000000000e3
:10394c0000e000000f040000100000001000000058
:10395c001004000008e000001f0000000000000040
:10396c000000000000000000008000000740000084
:10397c000920000011240000112200001120000079
:10398c0011c0000011000000000000000000000049
:10399c00000000000c240000122200001122000084
:1039ac001124000009c000001f00000010000000de
:1039bc000000000000000000000000000c240000cb
:1039cc0012200000112000001124000009c000008a
:1039dc001f000000100000000000000000000000ac
:1039ec00000000000c220000122400001120000036
:1039fc001120000009c000001f0000001000000092
:103a0c000000000000000000000000000c2000007e
:103a1c0012220000112500001122000009c0000034
:103a2c001f0000001000000000000000000000005b
:103a3c00008000000740000008200000102000005b
:103a4c0090200000b0200000d020000010000000ea
:103a5c00000000000000000000800000074400008f
:103a6c000922000011220000112400001120000086
:103a7c0011c0000011000000000000000000000058
:103a8c000080000007400000092400001120000005
:103a9c00112000001124000011c0000011000000d2
:103aac000000000000000000008000000740000043
:103abc000922000011240000112000001120000038
:103acc0011c0000011000000000000000000000008
:103adc0000200000002400000020000000e0000096
:103aec001f040000000000000000000000000000a7
:103afc000000000000000000002000000024000076
:103b0c000022000000e200001f0400000000000082
:103b1c000000000000000000000000000000000099
:103b2c0000200000002000000022000000e4000043
:103b3c001f0000000000000000000000000000005a
:103b4c000000000000000000100000000e810000ca
:103b5c0003700000021800000230000002c10000d7
:103b6c0002000000030000000c0000001000000028
:103b7c00100000000e80000003720000020d000017
:103b8c00021d000002f20000028000000300000091
:103b9c000e0000001000000000f800001f080000dc
:103bac0011080000110a00001109000011080000a2
:103bbc0011080000100000000000000000200000b0
:103bcc000e200000132000001120000011c0000086
:103bdc000f200000192000001120000011c000006f
:103bec001100000000000000100000000c8000001c
:103bfc00076000000418000004f800001f08000013
:103c0c001108000011080000100000000000000066
:103c1c000080000007440000082200001022000071
:103c2c001024000010400000088000000700000075
:103c3c0000000000000000000080000007440000ad
:103c4c00082000001020000010240000104000008c
:103c5c0008800000070000000000000000000000c9
:103c6c000080000007420000082400001020000023
:103c7c001020000010400000088000000700000029
:103c8c00000000000000000000e000000f04000035
:103c9c0010020000100200001004000008e00000f8
:103cac001f000000000000000000000000000000e9
:103cbc0000e000000f0200001004000010000000e3
:103ccc001000000008e000001f00000000000000d1
:103cdc00000000000020000080c0000080040000f4
:103cec0083000000460000003804000018000000ab
:103cfc000600000001c000000020000000000000d1
:103d0c0000e0000007110000080800001008000087
:103d1c0010080000100900001010000008e000005e
:103d2c00070000000000000000f800000701000080
:103d3c00180000001000000010000000100100002e
:103d4c0008f8000007000000000000000000000060
:103d5c000080000017400000082000001420000024
:103d6c0013a000001040000008a000000700000095
:103d7c000000000000000000000000000000000037
:103d8c001040000018fc0000174200001042000018
:103d9c0010020000100000000000000000000000f5
:103dac0000e00000171000000c08000016080000ce
:103dbc0011880000106800001030000008e80000b6
:103dcc000700000000000000002000001040000070
:103ddc0008800000040000000300000003800000c5
:103dec00044000000820000010000000000000004b
:103dfc0000000000802000008020000080fe0000f9
:103e0c007f210000002100000001000000000000e4
:103e1c000000000000000000000000000c2000006a
:103e2c0012200000112400001122000009c0000023
:103e3c001f00000010000000000000000000000047
:103e4c0000200000002000000020000000e4000022
:103e5c001f02000000000000000000000000000035
:103e6c00000000000000000000800000074000007f
:103e7c000820000010240000102200001040000058
:103e8c000880000007000000000000000000000097
:103e9c0000e000000f000000100000001004000003
:103eac001002000008e000001f00000000000000ed
:103ebc00000000000000000000e000001fc4000033
:103ecc00004200000024000000240000002200003a
:103edc0000c000001f0000000000000000000000f7
:103eec0000f800001f1200000061000000830000b9
:103efc00010200000601000008f800001f0000008d
:103f0c000000000000000000000000000032000073
:103f1c00004a0000004a0000004a0000007c00003b
:103f2c000040000000000000000000000000000045
:103f3c0000000000003c00000042000000420000b5
:103f4c000042000000420000003c000000000000a5
:103f5c0000000000000000000000000070000000e5
:103f6c00c80000008800000084600000830000008e
:103f7c0080000000e00000000000000000000000d5
:103f8c00003800000044000000ba000000aa000045
:103f9c0000ba0000004400000038000000000000df
:103fac000000000000000000008000000080000005
:103fbc0000800000008000000080000000800000f5
:103fcc0000800000008000000700000000020000dc
:103fdc00107e00000c000000028000000160000058
:103fec0000100000008c0000108200001c800000fb
:103ffc001400000013020000107e00000c000000f2
:10400c00028000000160000000100000060c00009f
:10401c0005820000048000001f0000000400000066
:10402c000000000000000000000000000000000084
:10403c0000600000ff000000000000000000000015
:10404c0000000000000000000000000001800000e3
:10405c000240000004200000080000000180000065
:10406c0002400000042000000800000000000000d6
:10407c000020000008400000048000000200000046
:10408c000120000008400000048000000200000035
:10409c000100000000db00006cdb00006c00000085
:1040ac0000db00006cdb00006c00000000db00009b
:1040bc006cdb00006c00000000000000006c0000d5
:1040cc00db6c0000dbdb00006cff0000ff6c000011
:1040dc00dbdb00006cff0000ff6c0000dbdb000092
:1040ec006cdb00006cff0000ffff0000ffdb00003a
:1040fc006cff0000ffff0000ffdb00006cff000006
:10410c00ffff0000ffdb00006cdb00006c00000018
:10411c0000000000000000000000000000ff000094
:10412c00ff00000000000000000000000000000084
:10413c000000000000000000010000000100000071
:10414c000100000001ff0000ff0000000000000063
:10415c000000000000000000000000000000000053
:10416c00100000000e80000003700000021a000016
:10417c000231000002c00000020000000300000039
:10418c000c00000010000000100000000e80000069
:10419c0003720000021900000231000002c200008c
:1041ac0002000000030000000c00000010000000e2
:1041bc00100000000e80000003710000021a0000c5
:1041cc000230000002c000000200000003000000ea
:1041dc000c00000010f00000030c00000ce60000c6
:1041ec001932000013120000121200001216000007
:1041fc001a0c00000cf0000003000000008000000e
:10420c00028000000280000002ff0000fe0000009f
:10421c0000ff0000ff000000000000000000000094
:10422c000000000000000000000000000000000082
:10423c0000ff0000ff00000000ff0000ff00000076
:10424c0000000000000000000000000000800000e2
:10425c00028000000280000002800000fe8000004e
:10426c0000800000ff0000000000000000000000c3
:10427c0000000000008000000280000002800000ae
:10428c0002ff00000200000002ff0000030000001b
:10429c000000000000000000000000000000000012
:1042ac0000f0000003080000040400000c040000ef
:1042bc0008fe00001f0400000804000008000000b5
:1042cc000000000000020000000400000098000044
:1042dc0004a0000004c000001fa000000490000017
:1042ec0004080000000400000002000000000000b0
:1042fc0001000000010000000100000001000000ae
:10430c00ff000000000000000000000000000000a2
:10431c000000000000000000000000000000000091
:10432c000000000000ff0000010000000100000080
:10433c00010000000100000001000000010000006d
:10434c0001000000010000000100000001ff00005e
:10435c00010000000100000001000000010000004d
:10436c00010000000100000001000000010000003d
:10437c000100000001000000ff000000010000002f
:10438c00010000000100000001000000010000001d
:10439c0000000000000000000000000000ff000012
:1043ac00ff000000010000000100000001000000ff
:1043bc0001000000010000000100000001000000ed
:1043cc0001000000010000000100000001000000dd
:1043dc0001000000010000000100000001000000cd
:1043ec0001000000010000000100000001ff0000be
:1043fc00ff000000010000000100000001000000af
:10440c000100000001000000000000000c2400006e
:10441c0012220000112400001124000009c2000027
:10442c001f00000010000000000000000000000051
:10443c00100000000e82000003710000021b00003f
:10444c000232000002c10000020000000300000064
:10445c000c00000010000000000000000000000034
:10446c0000ff00000300000002ff000002800000bb
:10447c0002800000028000000280000002000000a8
:10448c00000000000000000000800000ff80000021
:10449c0000800000fe80000002800000028000000e
:1044ac0002800000028000000280000002800000f8
:1044bc0002ff00000200000002ff0000028000006a
:1044cc0002800000028000000280000002800000d8
:1044dc00028000000280000002800000fe800000cc
:1044ec0000800000fe8000000280000002800000be
:1044fc00028000000200000000000000000000002c
:10450c0000ff0000ff00000000ff0000fe80000024
:10451c000280000002800000028000000280000087
:10452c000280000002800000028000000280000077
:10453c000280000002800000028000000280000067
:10454c000280000002800000028000000280000057
:10455c0002ff0000fe00000000ff0000fe800000d3
:10456c0002800000028000000280000002000000b7
:10457c000008000004f0000003100000021000000e
:10458c00021000000210000002f0000003080000fe
:10459c00040000000000000000820000074a000038
:1045ac00082e000010240000102a000010700000db
:1045bc0008c00000070000000000000000800000a0
:1045cc0000f800001f880000108800001008000090
:1045dc00100800001010000008e0000007000000a8
:1045ec00000000000000000000f800001f080000a0
:1045fc00110a00001109000011090000110a000045
:10460c001108000010000000000000000000000075
:10461c0000f800001f09000011080000110800003c
:10462c001108000011090000110800001000000022
:10463c00000000000000000000f800001f0800004f
:10464c001108000011090000110a000011080000f7
:10465c001108000010000000000000000000000025
:10466c0000200000002000000020000000e00000fe
:10467c001f0000000000000000000000000000000f
:10468c0000000000000000000008000010080000fe
:10469c001008000010fa00001f09000010080000ac
:1046ac0010080000100000000000000000000000d6
:1046bc000008000010080000100a000010f90000ab
:1046cc001f090000100a0000100800001000000074
:1046dc0000000000000000000008000010090000ad
:1046ec001008000010f800001f080000100900005e
:1046fc001008000010000000000000000000000086
:10470c0001000000010000000100000001ff00009a
:10471c00010000000000000000000000000000008c
:10472c00000000000000000000000000000000007d
:10473c000000000000000000ff000000010000006d
:10474c0001000000010000000100000001ff00005a
:10475c00ffff0000ffff0000ffff0000ffff000055
:10476c00ffff0000ffff0000ffff0000ffff000045
:10477c00ffff0000ff000000ff000000ff00000032
:10478c00ff000000ff000000ff000000ff00000021
:10479c00ff000000ff000000ff000000ff00000011
:1047ac00000000000000000000000000007e00007f
:1047bc007c00000000000000000000000000000071
:1047cc0000000000000000000008000010080000bd
:1047dc001009000010fa00001f080000100800006b
:1047ec0010080000100000000000000000ff000096
:1047fc0000ff000000ff000000ff000000ff0000b1
:10480c0000ff000000ff000000ff000000ff0000a0
:10481c0000ff00000000000000e000000710000096
:10482c0008080000100a0000100900001008000021
:10483c001010000008e0000007000000000000005d
:10484c0000fc00001f0200000002000000e200005b
:10485c00101c000011000000120000000c000000f1
:10486c00000000000000000000e000000710000045
:10487c00080a00001009000010090000100a0000ce
:10488c001010000008e0000007000000000000000d
:10489c0000e000000710000008090000100a0000ea
:1048ac0010080000100800001010000008e00000c4
:1048bc00070000000000000000800000074400001a
:1048cc0008220000102400001024000010420000f8
:1048dc00088000000700000000000000000000003d
:1048ec0000e000000712000008090000100b000097
:1048fc00100a0000100900001010000008e0000071
:10490c00070000000000000000e00000ff000000b5
:10491c000800000010000000100000001000000053
:10492c0008e000001f000000000000000000000074
:10493c0000fe0000ff4000000820000010200000d6
:10494c00102000001060000008800000070000002c
:10495c00000000000000000000f800001f20000014
:10496c0004200000042000000420000004200000ab
:10497c0002c0000001000000000000000000000068
:10498c0000f80000070000001800000010020000f2
:10499c00100100001000000008f8000007000000e3
:1049ac00000000000000000000f8000007000000fc
:1049bc00180200001001000010010000100200009d
:1049cc0008f80000070000000000000000000000d4
:1049dc0000f80000070000001801000010020000a1
:1049ec00100000001000000008f800000700000094
:1049fc00000000000020000080c0000080000000cb
:104a0c00830000004604000038020000180000007b
:104a1c000600000001c0000000200000000800009b
:104a2c000010000000600000008000000002000088
:104a3c001f8100000040000000200000001000005a
:104a4c00000800000001000000010000000100004f
:104a5c000001000000010000000100000001000046
:104a6c000001000000010000000100000000000037
:104a7c000000000000000000000200000001000027
:104a8c00000000000000000000000000000000001a
:104a9c00000000000000000000000000000000000a
:104aac0001000000010000000100000001000000f6
:104abc0001000000010000000000000000000000e8
:104acc0000800000108000001080000010800000aa
:104adc0010e0000013800000108000001080000027
:104aec001000000000000000a0000000a00000006a
:104afc00a0000000a0000000a0000000a00000002a
:104b0c00a0000000a0000000a0000000a0420000d7
:104b1c00104a0000085a0000043600000380000010
:104b2c0000400000063000000588000004840000ee
:104b3c001f02000004000000001c0000003e0000ea
:104b4c00007e000000fe00007f020000000200005a
:104b5c0000fe00007f0000000000000000000000cc
:104b6c000000000000dc0000613200004322000065
:104b7c0042620000464200004c8200003b000000f4
:104b8c000000000000000000000000000200000017
:104b9c0002000000026000001a6000001a00000011
:104bac0002000000020000000200000000000000f3
:104bbc0000000000000000000000000000000000e9
:104bcc0080000000a0000000c000000000000000f9
:104bdc0000000000000000000000000000000000c9
:104bec00000c00000012000000120000000c00007d
:104bfc0000000000000000000000000000000000a9
:104c0c000000000000010000000000000000000097
:104c1c000000000000010000000000000000000087
:104c2c000000000000000000000000000000000078
:104c3c000000000000000000030000000300000062
:104c4c000000000000000000000000000000000058
:104c5c00000000000000000000020000007e0000c8
:104c6c000000000000000000000000000000000038
:104c7c0000000000000000000000000000420000e6
:104c8c00004a0000004a0000004a00000036000004
:104c9c000000000000000000000000000000000008
:104cac000000000000420000006200000052000002
:104cbc0000520000004c000000000000000000004a
:104ccc00000000000000000000e000001fe00000f9
:104cdc001fe000001fe000001fe000001fe00000cc
:104cec001fe000001fe000001f000000000000009b
:104cfc0000000000000000000000000000000000a8
:104d0c000000000000000000000000000000000097
:104d1c0000000000003800000e3800000e380000c3
:104d2c000e1c0000778e000073c700007138000065
:104d3c00383800001c3800000edc000071ce00007a
:104d4c0071c7000071c00000387000001c380000f2
:104d5c000e00000000000000000000000000000039
:104d6c000000000000000000252e0000316600004d
:104d7c0000540000656d0000706500007261000059
:104d8c0074750000723a00002000000046650000b7
:104d9c007563000068740000696700006b650000b3
:104dac00697400003a200000004600004820000012
:104dbc004b490000454c00000000000014000000ae
:020000040000fa
:104dcc000000fa00e0cab3003200070050cdb30077
:104ddc003000070000c8b3002e00070080cab300e3
:104dec002c000700f0c3b3002a00070030cdb3003d
:104dfc00280007000040eb002600070000c4b300a9
:104e0c0024000700d0c8b3002200070040c1b30043
:104e1c002000070000c2b3001e0007000040eb009a
:104e2c001c00070010cab3001a00070080ccb300a6
:104e3c0018000700a0cdb3001600070020c1b30076
:104e4c001400070010c8b30012000700f0ccb30028
:104e5c001000070090cdb3000e00070010cfb30078
:104e6c000c000700b0cdb3000a00070000c4b3006b
:104e7c000800070040cab3000600070060cab30070
:104e8c0004000700f0cab300020007000080fa001b
:104e9c00000006000200fa00004f780080c7b30043
:104eac00620307000040eb009d0307001e407800e2
:104ebc009b0307004f0407000080fa000000060067
:104ecc000200fa00004f78001e4078000004e00059
:104edc000300320070cab300eeff07000200370077
:104eec0060cab300ebff07000080fa000000060068
:104efc000400fa00100798000040eb00004f780007
:104f0c000040eb001047980010c2b300e1ff07000f
:104f1c000040eb00dfff0700f0c7b300ddff070028
:104f2c0020c2b300dbff07000040eb00d9ff0700f5
:104f3c0070c0b300d7ff07000040eb00004f7800b3
:104f4c001800370080c7b3003803070000c4b30053
:104f5c00730307000040eb00104798000c0037006b
:104f6c001e80fb00c400dd001e4090000080fb0092
:104f7c00008040009e0090000080400010407800af
:104f8c00670307001e4090000040e800104798009f
:104f9c001e409000ef4f5000f1ff36001504070043
:104fac001e4fe800f0c3b3009e40780080cf500045
:104fbc00e4ff36000080fa00000006000400fa004e
:104fcc00004f780011479800224798001e40780047
:104fdc000004e0003c0035009e409000f0c3b3009c
:104fec0080cf50003a003e002e4090000004e000bc
:104ffc001a0032001e81fb001e4090000080fb0056
:10500c004300de00004078008080fb00c708dd0014
:10501c00810041001e81fb000080fb004700dd0089
:10502c00000041004280200062407800004178007e
:10503c001e4090000080fb00670060001300200001
:10504c000018dd000040780000407100004178003d
:10505c004080200002f078001e0037001e81fb000b
:10506c001e4090000080fb004300de0000407800f2
:10507c008080fb00c708dd00810041001e81fb0021
:10508c000080fb004700dd00000041004280200052
:10509c0062407800004178001e4090000080fb00c8
:1050ac0067006000130020000018dd00004078004d
:1050bc0000c0ea0000406100004178004080200000
:1050cc0002f07800030037000000000001003700f8
:1050dc00000000000080fa00000006000600fa0044
:1050ec002047980031479800424798000040eb0059
:1050fc00004f78000040eb00004f780007003700ad
:10510c003e4090001e40400012c0b300804078002a
:10511c002e409000a9ff07001e4fe8004e40900063
:10512c009e40780080cf5000f5ff39000080fa00d7
:10513c00000006000600fa0020479800314798004e
:10514c00424798000040eb00004f78000040eb0015
:10515c00004f7800060037002e4090001e404000a3
:10516c0012c0b300be40900094ff07001e4fe80031
:10517c004e4090009e40780080cf5000f6ff3900e2
:10518c000080fa00000006000c00fa00604798004e
:10519c0071479800024f9800134f9800244f9800c5
:1051ac008e4890006e40900000c050000040e80017
:1051bc00404798009e4890007e40900000c05000f0
:1051cc00504798000000eb00000f78000000eb0047
:1051dc00100798002e4890000004e00011003a00df
:1051ec004e419000fe4090006e409000d1ff0700b1
:1051fc004e4190009e4890006e409000cdff0700fd
:10520c005e419000fe4090006e409000b3ff07009e
:10521c005e419000fe4090000e489000afff0700ea
:10522c001d0037000000eb00000f7800160037005f
:10523c000000eb00100798000d0037001e009000d6
:10524c00804078007e40900080c040001e007800b6
:10525c00004178006e4090000040410012c0b30045
:10526c0056ff07001e0090000000e8001007980091
:10527c005e4090008080fb001e009000808f5000ec
:10528c00eeff3d001e0fe8004e4090000080fb003a
:10529c009e0f5000e6ff3c000080fa000000060064
:1052ac000200fa000000eb00000f78000000eb0099
:1052bc00000f780005003700408020001e004000e1
:1052cc008040eb00014878001e0fe800f03f200002
:1052dc009e007800808f5000f7ff36000080fa00a7
:1052ec00000006000200fa00004f78001e40780013
:1052fc00f3fe07000080fa00000006000000fa0030
:10530c0040802000fafe07000080fa000000060032
:10531c000200fa00000f78001e007800f4fe07006f
:10532c000080fa00000006000a00fa00200798002e
:10533c0031079800420798003e009000c700dd003e
:10534c002e00900000804000100798000040eb00f9
:10535c00004f78000c0037009e80fb001e00900070
:10536c00008040001e81fb00ce00900081004100b7
:10537c008100e800e236290062c1780041802000fb
:10538c00827078001e4fe800e13629004e00900034
:10539c0000804000104078009e4f5000eeff3e0011
:1053ac000080fa00000006000a00fa0020079800ae
:1053bc003107980042079800250037000000eb00e9
:1053cc00000f78000000eb00100798000900370070
:1053dc00e03629001e004000104078000080fb00e1
:1053ec001e004000000fe8001e0090000000e800c6
:1053fc00100798004e009000104078000000fb0051
:10540c000002b100800078001e009000808f5000d8
:10541c00efff3e001e017800be0090002e009000b1
:10542c00c1ff0700e03629001e0040001040780044
:10543c008080fb002e009000008040000000e800ff
:10544c00200798004e0090000000e80040079800ec
:10545c004e009000104078000004e000d7ff3a00a6
:10546c000080fa00000006000800fa0010079800ff
:10547c002107980032079800380037000040eb00f5
:10548c00004f78002c0037002e009000c700dd0084
:10549c001e009000808040001e80fb0000814000b8
:1054ac003e009000104078000000fb0001fe2f0031
:1054bc00808040001e80fb000000400080017800ce
:1054cc007408b90000007800030040001151290055
:1054dc00e140780040802000017079002e0090009f
:1054ec000000e800c700dd001e0090008080400036
:1054fc001e80fb00008140003e00900010407800b0
:10550c000000fb0001fe2f00808040001e80fb008d
:10551c00000040008001e8007408b9000000780029
:10552c000300400011512900e14078004080200028
:10553c00017079001e4fe8001e407800e94f5000c2
:10554c00d1ff36001e0090006a0040001007980042
:10555c003e0090000000e800300798003e009000ec
:10556c00104078000004e000c4ff3a000080fa000c
:10557c00000006000600fa001007980021079800aa
:10558c000040eb00004f78001b0037002e0090000d
:10559c00c700dd001e009000808040001e80fb00d4
:1055ac00808040001e80fb000000400012692a0031
