:020000040000fa
:080000000002040000000000f2
:020000040000fa
:0400080008040000e8
:020000040000fa
:04000c0008040000e4
:020000040000fa
:0400100008040000e0
:020000040000fa
:0400140008040000dc
:020000040000fa
:0400180008040000d8
:020000040000fa
:04001c0008040000d4
:020000040000fa
:0400200008040000d0
:020000040000fa
:0400240008040000cc
:020000040000fa
:0400280008040000c8
:020000040000fa
:04002c0008040000c4
:020000040000fa
:0400300008040000c0
:020000040000fa
:04003400c8030000fd
:020000040000fa
:0400380008040000b8
:020000040000fa
:04003c0008040000b4
:020000040000fa
:0400400008040000b0
:020000040000fa
:0400440008040000ac
:020000040000fa
:04004800c8020000ea
:020000040000fa
:04004c0008040000a4
:020000040000fa
:0400500008040000a0
:020000040000fa
:04005400080400009c
:020000040000fa
:040058000804000098
:020000040000fa
:04005c000804000094
:020000040000fa
:040060000804000090
:020000040000fa
:04006400080400008c
:020000040000fa
:040068000804000088
:020000040000fa
:04006c000804000084
:020000040000fa
:040070000804000080
:020000040000fa
:04007400080400007c
:020000040000fa
:040078000804000078
:020000040000fa
:04007c000804000074
:020000040000fa
:040080000804000070
:020000040000fa
:04008400080400006c
:020000040000fa
:040088000804000068
:020000040000fa
:04008c000804000064
:020000040000fa
:040090000804000060
:020000040000fa
:04009400080400005c
:020000040000fa
:040098000804000058
:020000040000fa
:04009c000804000054
:020000040000fa
:0400a0000804000050
:020000040000fa
:0400a400080400004c
:020000040000fa
:0400a8000804000048
:020000040000fa
:0400ac000804000044
:020000040000fa
:0400b0000804000040
:020000040000fa
:0400b400080400003c
:020000040000fa
:0400b8000804000038
:020000040000fa
:0400bc000804000034
:020000040000fa
:0400c0000804000030
:020000040000fa
:0400c400080400002c
:020000040000fa
:0400c8000804000028
:020000040000fa
:0400cc000804000024
:020000040000fa
:0400d0000804000020
:020000040000fa
:0400d400080400001c
:020000040000fa
:0400d8000804000018
:020000040000fa
:0400dc000804000014
:020000040000fa
:0400e0000804000010
:020000040000fa
:0400e400080400000c
:020000040000fa
:0400e8000804000008
:020000040000fa
:0400ec000804000004
:020000040000fa
:0400f0000804000000
:020000040000fa
:0400f40008040000fc
:020000040000fa
:0400f80008040000f8
:020000040000fa
:0400fc0008040000f4
:020000040000fa
:0401000008040000ef
:020000040000fa
:0401040008040000eb
:020000040000fa
:0401080008040000e7
:020000040000fa
:04010c0008040000e3
:020000040000fa
:0401100008040000df
:020000040000fa
:0401140008040000db
:020000040000fa
:0401180008040000d7
:020000040000fa
:04011c0008040000d3
:020000040000fa
:0401200008040000cf
:020000040000fa
:0401240008040000cb
:020000040000fa
:0401280008040000c7
:020000040000fa
:04012c0008040000c3
:020000040000fa
:0401300008040000bf
:020000040000fa
:0401340008040000bb
:020000040000fa
:0401380008040000b7
:020000040000fa
:04013c0008040000b3
:020000040000fa
:0401400008040000af
:020000040000fa
:0401440008040000ab
:020000040000fa
:0401480008040000a7
:020000040000fa
:04014c0008040000a3
:020000040000fa
:04015000080400009f
:020000040000fa
:04015400080400009b
:020000040000fa
:040158000804000097
:020000040000fa
:04015c000804000093
:020000040000fa
:04016000080400008f
:020000040000fa
:04016400080400008b
:020000040000fa
:0402080008040000e6
:020000040000fa
:04020c0008040000e2
:020000040000fa
:0402100008040000de
:020000040000fa
:0402140008040000da
:020000040000fa
:0402180008040000d6
:020000040000fa
:04021c0008040000d2
:020000040000fa
:0402200008040000ce
:020000040000fa
:0402240008040000ca
:020000040000fa
:0402280008040000c6
:020000040000fa
:04022c0008040000c2
:020000040000fa
:0402300008040000be
:020000040000fa
:04023400c8030000fb
:020000040000fa
:0402380008040000b6
:020000040000fa
:04023c0008040000b2
:020000040000fa
:0402400008040000ae
:020000040000fa
:0402440008040000aa
:020000040000fa
:04024800c8020000e8
:020000040000fa
:04024c0008040000a2
:020000040000fa
:04025000080400009e
:020000040000fa
:04025400080400009a
:020000040000fa
:040258000804000096
:020000040000fa
:04025c000804000092
:020000040000fa
:04026000080400008e
:020000040000fa
:04026400080400008a
:020000040000fa
:040268000804000086
:020000040000fa
:04026c000804000082
:020000040000fa
:04027000080400007e
:020000040000fa
:04027400080400007a
:020000040000fa
:040278000804000076
:020000040000fa
:04027c000804000072
:020000040000fa
:04028000080400006e
:020000040000fa
:04028400080400006a
:020000040000fa
:040288000804000066
:020000040000fa
:04028c000804000062
:020000040000fa
:04029000080400005e
:020000040000fa
:04029400080400005a
:020000040000fa
:040298000804000056
:020000040000fa
:04029c000804000052
:020000040000fa
:0402a000080400004e
:020000040000fa
:0402a400080400004a
:020000040000fa
:0402a8000804000046
:020000040000fa
:0402ac000804000042
:020000040000fa
:0402b000080400003e
:020000040000fa
:0402b400080400003a
:020000040000fa
:0402b8000804000036
:020000040000fa
:0402bc000804000032
:020000040000fa
:0402c000080400002e
:020000040000fa
:0402c400080400002a
:020000040000fa
:0402c8000804000026
:020000040000fa
:0402cc000804000022
:020000040000fa
:0402d000080400001e
:020000040000fa
:0402d400080400001a
:020000040000fa
:0402d8000804000016
:020000040000fa
:0402dc000804000012
:020000040000fa
:0402e000080400000e
:020000040000fa
:0402e400080400000a
:020000040000fa
:0402e8000804000006
:020000040000fa
:0402ec000804000002
:020000040000fa
:0402f00008040000fe
:020000040000fa
:0402f40008040000fa
:020000040000fa
:0402f80008040000f6
:020000040000fa
:0402fc0008040000f2
:020000040000fa
:0403000008040000ed
:020000040000fa
:0403040008040000e9
:020000040000fa
:0403080008040000e5
:020000040000fa
:04030c0008040000e1
:020000040000fa
:0403100008040000dd
:020000040000fa
:0403140008040000d9
:020000040000fa
:0403180008040000d5
:020000040000fa
:04031c0008040000d1
:020000040000fa
:0403200008040000cd
:020000040000fa
:0403240008040000c9
:020000040000fa
:0403280008040000c5
:020000040000fa
:04032c0008040000c1
:020000040000fa
:0403300008040000bd
:020000040000fa
:0403340008040000b9
:020000040000fa
:0403380008040000b5
:020000040000fa
:04033c0008040000b1
:020000040000fa
:0403400008040000ad
:020000040000fa
:0403440008040000a9
:020000040000fa
:0403480008040000a5
:020000040000fa
:04034c0008040000a1
:020000040000fa
:04035000080400009d
:020000040000fa
:040354000804000099
:020000040000fa
:040358000804000095
:020000040000fa
:04035c000804000091
:020000040000fa
:04036000080400008d
:020000040000fa
:040364000804000089
:020000040000fa
:100400004f8a20000e7f24000e01880000000000ab
:10041000000020000000e000020032000001200087
:100420002002880014000700fb0007000000e00025
:1004300003003a00607c2000010020000200370029
:100440000000200001002000810f70000100320038
:1004500014000700000020000000e000020032004d
:100460000000020000000000200602000000000062
:100470000040da000000fe004440a90020002000f7
:100480000000e0000300320000002000a00188000e
:100490004440a800000006008a1f78008b1f7800e7
:1004a0000000060091018800800478000000eb0045
:1004b0001a003700e284440032a0b4009905ba0063
:1004c000e284440032a0b4009906ba00e2844400f9
:1004d00032a0b4000006eb00476fde00fd07b2005b
:1004e000636ce10003003a00ebff07000000eb0043
:1004f0000a003700606ce10004003a00005deb0088
:100500008b05e900fdff3e00040037006168e10053
:10051000010032000086eb000b00070019c7ba008b
:100520001905ba000e04e00003003a000a00e000da
:10053000e0ff3a0000000600fe07b2009e018800be
:100540008a047800f5ff3700395dba008b05e900b1
:100550000c003200295dba008b05e900080032006a
:100560000c00e00003003a00e284440032a0b40032
:10057000f5ff370019ddba008b05e900faff3a00f4
:100580008904e800e184440032a0b40000000600c1
:100590003600f800809fbe00829fbe00849fbe0090
:1005a000869fbe000600fa0030408000e10f500038
:1005b0001b003a00204080000000e00018003a00d4
:1005c0000040800080004000a080200000804000ab
:1005d000110020000108780061168000000024004e
:1005e0000080600000f0a7000000ea000000e900c1
:1005f0004f00de00004078000080fb0061006000da
:100600004e00dd006116800001e0a10001007000d5
:1006100060168800004080000000e800004088006c
:100620000140800070208400808f50001800350049
:1006300030408000e10f500015003a007020840027
:1006400080007800a080200033010700800078003f
:100650000e80e800010878000e80e80010007800a5
:10066000e10f400005003a000028ef000628ef00e7
:1006700013e1a9009500a900040037000028ef004d
:100680000628ef0010002000204088000028ef001e
:1006900020408000e10f50002e003a000040800012
:1006a00051168000cf08de00814078000181fb00f8
:1006b00080004000c08320000080400002087800d5
:1006c000c08320008f00070080007800640047008e
:1006d000010878006400470010007800e10f400036
:1006e000190032000040800080004000408520005a
:1006f00000804000e4004700110878000028ef0067
:100700000000eb00000f78000000eb00000f780005
:10071000070037001e00780080004000c0832000e2
:10072000008040008080eb00010878001e0fe80088
:100730001e007800eb0f5000f6ff340010408000e0
:100740000000e80010408800004080000000e80041
:10075000004088001140800070022000808f50000f
:10076000030034000028ef0013e1a9009500a90060
:100770008500a9000080fa004f03be004f02be00b2
:100780004f01be004f00be003600f90000400600d9
:100790003600f800809fbe00829fbe00849fbe008e
:1007a000869fbe000000fa00404080000000e0008c
:1007b00002003a00c9e2a900cbe2a9004040800053
:1007c000f30f500007003400cbe2a800c9e2a800f4
:1007d000100020003040880005e1a9009460a900c5
:1007e000b2010700404080000000e800404088005f
:1007f0008460a9000080fa004f03be004f02be00d3
:100800004f01be004f00be003600f9000040060058
:0c0810000040da000000fe0000000500bf
:020000040000fa
:04081c0019000000bf
:020000040000fa
:100820000000fa00b60107000080fa000000060090
:100830000400fa00000f78000e80e800010878003c
:100840000000eb000080fa00000006000600fa003d
:10085000e4004700800878000000eb00000f7800fb
:100860006a0007000000e00024003a008080eb00ee
:100870000e80e8000108780000000000511680009a
:1008800000002800008060000000e0001500320039
:1008900051088000f0f92000808f5000f7ff3600eb
:1008a0001000370017000700800078000e80e80075
:1008b000010878000e80e80010007800e10f400089
:1008c0000d0032001e00780000004000e4004700e8
:1008d00091007800008040008e80e80011087800c8
:1008e0001e0fe800700220009e007800808f5000ec
:1008f000ecff340001003700000000000080fa0027
:10090000000006000400fa000000eb00000f780071
:1009100000000000511680000000280000806000e8
:100920000000e00004003a005108800070bb200085
:10093000808f5000f7ff36005108800080bb2000f8
:10094000808f50000f0036000a21ef000080eb007e
:100950002c00370051168000000028000080600045
:100960000000e000080032001e0078000000e000f7
:1009700005003a000a21ef0010002000000f780067
:100980000100370000000000511680000000280020
:10099000008060000000e000eeff3a005108800097
:1009a0000e80e800010878000e80e80090007800d2
:1009b00000772100808f5000080034000e80e8008e
:1009c00090007800f0e12400808f500003003c008c
:1009d0000a21ef000000eb000a0037000e80e8005b
:1009e0009000780000e22400808f50000300340063
:1009f0000a21ef0010002000020037000a21ef005a
:100a00000080eb000080fa00000006000800fa00f9
:100a1000012c2100640047000108780036003700ef
:100a200011c0b3000e80e800014878005116800024
:100a300000002800008060000000e0000400320098
:100a40000e80e80010407800e14f5000290032008d
:100a50005116800000002800008060000000e000c7
:100a600009003a000e80e80010407800e14f500085
:100a700005003a0050088000000f78008040eb002d
:100a80000e80e80001487800511680000000280020
:100a9000008060000000e000170032000e80e800d7
:100aa000104078000004e00013003a005108800074
:100ab0001e00780080805000660047000108780022
:100ac0006600470010007800e70f50000700340070
:100ad0006600470010007800e80f500003003c005b
:100ae0000a21ef000000eb00090037001000200091
:100af0000700370000000000640047009000780005
:100b000050088000808f5000c5ff3e00100020007c
:100b10000080fa00000006000a00fa0066014700a3
:100b2000000978006800470001087800c882a90021
:100b30008000eb000e80e800010878001100200022
:100b400064004700010878000000eb00000f780007
:100b5000210037001e00780000004000e60047003a
:100b60009100780000804000100078000000e00054
:100b700008003a000e80e800100078008000e800cd
:100b80000e80e800010878008000eb006400470058
:100b9000010878000e80e80010007800e60f500091
:100ba0000c0034001e00780080004000a08020006f
:100bb0000080400010007800e10f500005003a006e
:100bc0000628ef0010002000204088000000eb0005
:100bd0000a0037001e0fe800680047001000780088
:100be0009e007800808f5000daff35000628ef0065
:100bf0000428ef00ca82a8000080eb000080fa0001
:100c0000000006000600fa000e81e80000097800e6
:100c1000640047000108780010002000e40047004d
:100c2000910078000100dd00000f78000e80e800e0
:100c3000100078001e0070000080fa00000006001e
:100c40005c00fa00820520000e01410000097800d6
:100c5000a00520000e00400001087800e8004700d1
:100c6000270009008018eb008000eb0064004700bb
:100c7000010878006100070069e0a8000428ef007f
:100c8000c9c2a90000402b00414c2000b100070060
:100c9000e3fe07008500070068004700ebfe070041
:100ca0008000eb0066004700010878004b00370029
:100cb0006600470010007800000040000000470078
:100cc0006800400010007800e10f500009003a0071
:100cd0006600470010007800ef0f500005003c0050
:100ce00066004700900078001e007800c5ff0700ee
:100cf000000f7800660047001000780000004000f8
:100d0000000047006800400010007800e10f50002c
:100d100012003a006600470010007800ef0f500004
:100d20000e0034006600470010007800ff0f5000ee
:100d30000a003c0066004700100078007000500078
:100d4000800078000e80e80010007800adff0700fa
:100d5000800078000e80e8000108780066004700f7
:100d600010007800000040000000470068004000cc
:100d700010007800e10f500013003a0066004700b1
:100d800010007800ff0f50000f003400660047008d
:100d90009000780070022000808f50000a003c0014
:100da00066004700100078000002b1008000780063
:100db000640047001000780092ff07008000780070
:100dc00064004700010878006600470010007800c2
:100dd0008000e800660047000108780066004700d0
:100de0009000780070022000808f5000b0ff340027
:100df0000000eb000080fa00000006000000fa008e
:100e0000313a800000e02f0080806000e004200084
:100e100001007000303a8800213a8000f0f32f0082
:100e200000806000203a8800213a800000fe2f00f8
:100e300000806000203a88003200200080072000f7
:100e4000a10920003374200080497800814978008e
:100e50008249780012002000600420007105200003
:100e60002374200080497800814978008249780005
:100e700000000000113a8000000027008080600020
:100e800000002300808f5000faff3a0000000000ad
:100e9000113a800000022000008060000000e000a5
:100ea000fbff32000080fa00000006000000fa009c
:100eb00013e1a9001221a90012c1a9009108800024
:100ec000f0fc2f0000806000900888000a21ef00ed
:100ed00030012000700888004105800080ff2f004d
:100ee000008060000000a000400588008500a90087
:100ef0009500a80013e1a8000080fa000000060099
:100f00000000fa0005e1a9000421a90004c1a9001c
:100f100021088000f0fc2f0000806000200888007d
:100f20000021ef00f07c20001008880021058000df
:100f3000f0ff28000080600000c0a00020058800ad
:100f40008460a9009460a80005e1a8000080fa0070
:040f50000000060097
:020000040000fa
:100f5400f03fb1000180b10006003500ee03090046
:100f640000000000403fb1000180b100fbff3d00e4
:100f74001000b000203fb0000200350000800900de
:080f840000000000000006005f
:020000040000fa
:100f8c000008000004000000000000000a08000037
:100f9c009a0000000000000004080000040000009b
:100fac000000000008080000020000000000000023
:040fbc000000000031
:020000040000fa
:0200000401f009
:04000000ffffff00ff
:020000040000fa
:0200000401f009
:04000400ffffff00fb
:020000040000fa
:0200000401f009
:04000800ffffff00f7
:020000040000fa
:0200000401f009
:04000c0002000000ee
:020000040000fa
:0200000401f009
:0400100005000000e7
:020000040000fa
:0200000401f009
:040014005f00000089
:020000040000fa
:0200000401f009
:04001800f7000000ed
:020000040000fa
:0200000401f009
:04001c00dfff000002
:00000001FF
