:020000040000fa
:080000000002040000000000f2
:020000040000fa
:04000800c80200002a
:020000040000fa
:04000c00c802000026
:020000040000fa
:04001000c802000022
:020000040000fa
:04001400c80200001e
:020000040000fa
:04001800c80200001a
:020000040000fa
:04001c00c802000016
:020000040000fa
:04002000c802000012
:020000040000fa
:04002400c80200000e
:020000040000fa
:04002800c80200000a
:020000040000fa
:04002c00c802000006
:020000040000fa
:04003000c802000002
:020000040000fa
:04003400c8020000fe
:020000040000fa
:04003800c8020000fa
:020000040000fa
:04003c00c8020000f6
:020000040000fa
:04004000c8020000f2
:020000040000fa
:04004400c8020000ee
:020000040000fa
:04004800c8020000ea
:020000040000fa
:04004c00c8020000e6
:020000040000fa
:04005000c8020000e2
:020000040000fa
:04005400c8020000de
:020000040000fa
:04005800c8020000da
:020000040000fa
:04005c00c8020000d6
:020000040000fa
:04006000c8020000d2
:020000040000fa
:04006400c8020000ce
:020000040000fa
:04006800c8020000ca
:020000040000fa
:04006c00c8020000c6
:020000040000fa
:04007000c8020000c2
:020000040000fa
:04007400c8020000be
:020000040000fa
:04007800c8020000ba
:020000040000fa
:04007c00c8020000b6
:020000040000fa
:04008000c8020000b2
:020000040000fa
:04008400c8020000ae
:020000040000fa
:04008800c8020000aa
:020000040000fa
:04008c00c8020000a6
:020000040000fa
:04009000c8020000a2
:020000040000fa
:04009400c80200009e
:020000040000fa
:04009800c80200009a
:020000040000fa
:04009c00c802000096
:020000040000fa
:0400a000c802000092
:020000040000fa
:0400a400c80200008e
:020000040000fa
:0400a800c80200008a
:020000040000fa
:0400ac00c802000086
:020000040000fa
:0400b000c802000082
:020000040000fa
:0400b400c80200007e
:020000040000fa
:0400b800c80200007a
:020000040000fa
:0400bc00c802000076
:020000040000fa
:0400c000c802000072
:020000040000fa
:0400c400c80200006e
:020000040000fa
:0400c800c80200006a
:020000040000fa
:0400cc00c802000066
:020000040000fa
:0400d000c802000062
:020000040000fa
:0400d400c80200005e
:020000040000fa
:0400d800c80200005a
:020000040000fa
:0400dc00c802000056
:020000040000fa
:0400e000c802000052
:020000040000fa
:0400e400c80200004e
:020000040000fa
:0400e800c80200004a
:020000040000fa
:0400ec00c802000046
:020000040000fa
:0400f000c802000042
:020000040000fa
:0400f400c80200003e
:020000040000fa
:0400f800c80200003a
:020000040000fa
:0400fc00c802000036
:020000040000fa
:04010000c802000031
:020000040000fa
:04010400c80200002d
:020000040000fa
:04010800c802000029
:020000040000fa
:04010c00c802000025
:020000040000fa
:04011000c802000021
:020000040000fa
:04011400c80200001d
:020000040000fa
:04011800c802000019
:020000040000fa
:04011c00c802000015
:020000040000fa
:04012000c802000011
:020000040000fa
:04012400c80200000d
:020000040000fa
:04012800c802000009
:020000040000fa
:04012c00c802000005
:020000040000fa
:04013000c802000001
:020000040000fa
:04013400c8020000fd
:020000040000fa
:04013800c8020000f9
:020000040000fa
:04013c00c8020000f5
:020000040000fa
:04014000c8020000f1
:020000040000fa
:04014400c8020000ed
:020000040000fa
:04014800c8020000e9
:020000040000fa
:04014c00c8020000e5
:020000040000fa
:04015000c8020000e1
:020000040000fa
:04015400c8020000dd
:020000040000fa
:04015800c8020000d9
:020000040000fa
:04015c00c8020000d5
:020000040000fa
:04016000c8020000d1
:020000040000fa
:04016400c8020000cd
:020000040000fa
:04020800c802000028
:020000040000fa
:04020c00c802000024
:020000040000fa
:04021000c802000020
:020000040000fa
:04021400c80200001c
:020000040000fa
:04021800c802000018
:020000040000fa
:04021c00c802000014
:020000040000fa
:04022000c802000010
:020000040000fa
:04022400c80200000c
:020000040000fa
:04022800c802000008
:020000040000fa
:04022c00c802000004
:020000040000fa
:04023000c802000000
:020000040000fa
:04023400c8020000fc
:020000040000fa
:04023800c8020000f8
:020000040000fa
:04023c00c8020000f4
:020000040000fa
:04024000c8020000f0
:020000040000fa
:04024400c8020000ec
:020000040000fa
:04024800c8020000e8
:020000040000fa
:04024c00c8020000e4
:020000040000fa
:04025000c8020000e0
:020000040000fa
:04025400c8020000dc
:020000040000fa
:04025800c8020000d8
:020000040000fa
:04025c00c8020000d4
:020000040000fa
:04026000c8020000d0
:020000040000fa
:04026400c8020000cc
:020000040000fa
:04026800c8020000c8
:020000040000fa
:04026c00c8020000c4
:020000040000fa
:04027000c8020000c0
:020000040000fa
:04027400c8020000bc
:020000040000fa
:04027800c8020000b8
:020000040000fa
:04027c00c8020000b4
:020000040000fa
:04028000c8020000b0
:020000040000fa
:04028400c8020000ac
:020000040000fa
:04028800c8020000a8
:020000040000fa
:04028c00c8020000a4
:020000040000fa
:04029000c8020000a0
:020000040000fa
:04029400c80200009c
:020000040000fa
:04029800c802000098
:020000040000fa
:04029c00c802000094
:020000040000fa
:0402a000c802000090
:020000040000fa
:0402a400c80200008c
:020000040000fa
:0402a800c802000088
:020000040000fa
:0402ac00c802000084
:020000040000fa
:0402b000c802000080
:020000040000fa
:0402b400c80200007c
:020000040000fa
:0402b800c802000078
:020000040000fa
:0402bc00c802000074
:020000040000fa
:0402c000c802000070
:020000040000fa
:0402c400c80200006c
:020000040000fa
:0402c800c802000068
:020000040000fa
:0402cc00c802000064
:020000040000fa
:0402d000c802000060
:020000040000fa
:0402d400c80200005c
:020000040000fa
:0402d800c802000058
:020000040000fa
:0402dc00c802000054
:020000040000fa
:0402e000c802000050
:020000040000fa
:0402e400c80200004c
:020000040000fa
:0402e800c802000048
:020000040000fa
:0402ec00c802000044
:020000040000fa
:0402f000c802000040
:020000040000fa
:0402f400c80200003c
:020000040000fa
:0402f800c802000038
:020000040000fa
:0402fc00c802000034
:020000040000fa
:04030000c80200002f
:020000040000fa
:04030400c80200002b
:020000040000fa
:04030800c802000027
:020000040000fa
:04030c00c802000023
:020000040000fa
:04031000c80200001f
:020000040000fa
:04031400c80200001b
:020000040000fa
:04031800c802000017
:020000040000fa
:04031c00c802000013
:020000040000fa
:04032000c80200000f
:020000040000fa
:04032400c80200000b
:020000040000fa
:04032800c802000007
:020000040000fa
:04032c00c802000003
:020000040000fa
:04033000c8020000ff
:020000040000fa
:04033400c8020000fb
:020000040000fa
:04033800c8020000f7
:020000040000fa
:04033c00c8020000f3
:020000040000fa
:04034000c8020000ef
:020000040000fa
:04034400c8020000eb
:020000040000fa
:04034800c8020000e7
:020000040000fa
:04034c00c8020000e3
:020000040000fa
:04035000c8020000df
:020000040000fa
:04035400c8020000db
:020000040000fa
:04035800c8020000d7
:020000040000fa
:04035c00c8020000d3
:020000040000fa
:04036000c8020000cf
:020000040000fa
:04036400c8020000cb
:020000040000fa
:10040000ef8920000e7f24000e018800000000000c
:10041000000020000000e000020032000001200087
:1004200020028800140007005b0007000000e000c5
:1004300003003a00a06a20000100200002003700fb
:100440000000200001002000810f70000100320038
:1004500014000700000020000000e000020032004d
:100460000000020000000000000502000000000083
:100470000040da000000fe004440a90020002000f7
:100480000000e0000300320000002000a00188000e
:100490004440a800000006008a1f78008b1f7800e7
:1004a0000000060091018800800478000000eb0045
:1004b0001a003700e284440032a0b4009905ba0063
:1004c000e284440032a0b4009906ba00e2844400f9
:1004d00032a0b4000006eb00476fde00fd07b2005b
:1004e000636ce10003003a00ebff07000000eb0043
:1004f0000a003700606ce10004003a00005deb0088
:100500008b05e900fdff3e00040037006168e10053
:10051000010032000086eb000b00070019c7ba008b
:100520001905ba000e04e00003003a000a00e000da
:10053000e0ff3a0000000600fe07b2009e018800be
:100540008a047800f5ff3700395dba008b05e900b1
:100550000c003200295dba008b05e900080032006a
:100560000c00e00003003a00e284440032a0b40032
:10057000f5ff370019ddba008b05e900faff3a00f4
:100580008904e800e184440032a0b40000000600c1
:0c0590000040da000000fe000000050042
:020000040000fa
:04059c001900000042
:020000040000fa
:1005a0000000fa00c8a2a900caa2a90000102700f2
:1005b00021002000d9010700caa2a800c8a2a800f3
:1005c0000080fa00000006000400fa00000f780026
:1005d0000e80e800010878000000eb000080fa00bf
:1005e000000006000800fa00e600470080087800d6
:1005f0000000eb00000f780070000700800078001a
:100600000e80e800010878000e80e80010007800f5
:100610000000e00024003a008080eb006400470006
:100620000108780000000000511680000002200040
:10063000008060000000e0001700320051088000d8
:10064000f0f92000808f5000f7ff360012003700cd
:100650001800070080007800640047000108780057
:100660006400470010007800e10f400002003a00eb
:100670000080eb000d0037001e00780000004000f5
:10068000e60047009100780000804000e400470049
:10069000110878001e0fe800700220009e0078000c
:1006a000808f5000eaff34000000eb000080fa0069
:1006b000000006000400fa000000eb00000f7800c4
:1006c0000000000051168000000220000080600041
:1006d0000000e00004003a005108800070bb2000d8
:1006e000808f5000f7ff36005108800080bb20004b
:1006f000808f50000f0036000a21ef000080eb00d1
:100700002c0037005116800000022000008060009d
:100710000000e000080032001e0078000000e00049
:1007200005003a000a21ef0010002000000f7800b9
:100730000100370000000000511680000002200078
:10074000008060000000e000eeff3a0051088000e9
:100750000e80e800010878000e80e8009000780024
:1007600000772100808f5000080034000e80e800e0
:1007700090007800f0e12400808f500003003c00de
:100780000a21ef000000eb000a0037000e80e800ad
:100790009000780000e22400808f500003003400b5
:1007a0000a21ef0010002000020037000a21ef00ac
:1007b0000080eb000080fa00000006000600fa004e
:1007c000012c21000e80e8000108780010002000b4
:1007d000000f78003800370051168000000220001a
:1007e000008060000000e0000e0032001e00780073
:1007f000e10f50000b003a00601680000080ea0014
:100800004f00de00004078000080fb004f00dd005c
:100810005116800001f0a100010070005016880000
:100820002500370051168000000220000080600083
:100830000000e00006003a001e007800e10f5000c2
:1008400003003a000a21ef000000eb00000f7800df
:100850005116800000022000008060000000e000cf
:10086000150032001e0078000000e00012003a007f
:1008700051088000640047000108780064004700c8
:100880009000780000af2000808f500008003400f6
:100890006400470090007800f0e02000808f500056
:1008a00003003c000a21ef000000eb0008003700c5
:1008b0000080eb00060037000e80e8009000780012
:1008c00050088000808f5000c3ff3e0010002000c1
:1008d0000080fa00000006000a00fa0066014700e6
:1008e000000978006800470001087800c882a90064
:1008f0008000eb000e80e800010878001100200065
:1009000064004700010878000000eb00000f780049
:10091000210037001e00780000004000e60047007c
:100920009100780000804000100078000000e00096
:1009300008003a000e80e800100078008000e8000f
:100940000e80e800010878008000eb00640047009a
:10095000010878000e80e80010007800e60f5000d3
:100960000c0034001e007800800040004080200011
:100970000080400010007800e10f500005003a00b0
:100980000228ef0010002000004088000000eb006b
:100990000a0037001e0fe8006800470010007800ca
:1009a0009e007800808f5000daff35000228ef00ab
:1009b0000028ef00ca82a8000080eb000080fa0047
:1009c000000006000600fa000e81e8000009780029
:1009d000640047000108780010002000e400470090
:1009e000910078000100dd00000f78000e80e80023
:1009f000100078001e0070000080fa000000060061
:100a00005c00fa00820520000e0141000009780018
:100a1000a00520000e004000010878000080eb00d7
:100a200060198800e8004700270009008018eb00e3
:100a30008000eb00640047000108780061000700b7
:100a40000028ef00c9c2a90000402b00414c200043
:100a5000b2000700d2fe07008600070068004700ca
:100a6000e0fe07008000eb00660047000108780008
:100a70004b0037006600470010007800000040007f
:100a8000000047006800400010007800e10f5000af
:100a900009003a006600470010007800ef0f500090
:100aa00005003c0066004700900078001e007800ba
:100ab000c4ff0700000f78006600470010007800b0
:100ac000000040000000470068004000100078006f
:100ad000e10f500012003a00660047001000780055
:100ae000ef0f50000e003400660047001000780041
:100af000ff0f50000a003c0066004700100078001d
:100b000070005000800078000e80e800100078002f
:100b1000acff0700800078000e80e8000108780034
:100b20006600470010007800000040000000470009
:100b30006800400010007800e10f500013003a00f8
:100b40006600470010007800ff0f50000f003400cf
:100b5000660047009000780070022000808f5000ef
:100b60000a003c0066004700100078000002b10057
:100b700080007800640047001000780091ff0700b3
:100b80008000780064004700010878006600470094
:100b9000100078008000e800660047000108780037
:100ba000660047009000780070022000808f50009f
:100bb000b0ff340000402800717d2100570007007d
:100bc000a4ff37000000fa00313a800000e02f0057
:100bd00080806000e004200001007000303a88004e
:100be000213a8000f0f32f0000806000203a880056
:100bf000213a800000fe2f0000806000203a88002b
:100c00003200200080072000a1092000337420005a
:100c100080497800814978008249780012002000dc
:100c200060042000710520002374200080497800b2
:100c3000814978008249780000000000113a800064
:100c4000000027008080600000002300808f50009b
:100c5000faff3a0000000000113a80000002200074
:100c6000008060000000e000fbff32000080fa001e
:100c7000000006000000fa0013e1a9001221a900fb
:100c800012c1a90091088000f0fc2f0000806000d4
:100c9000900888000a21ef0080de2f00700888008d
:100ca0004105800080ff2f00008060000000a00050
:100cb000400588008500a9009500a90013e1a8005f
:100cc0000080fa00000006000000fa0005e1a9001b
:100cd0000421a90004c1a90021088000f0fc2f0014
:100ce00000806000200888000021ef00f07c2000d8
:100cf0001008880021058000f0ff280000806000b7
:100d000000c0a000200588008460a9009460a900ac
:0c0d100005e1a8000080fa0000000600c9
:020000040000fa
:100d1c00f03fb1000180b10006003500ee03090080
:100d2c0000000000403fb1000180b100fbff3d001e
:100d3c001000b000203fb000020035000080090018
:080d4c00000000000000060099
:020000040000fa
:100d5400040800009a0000000000000000080000e1
:0c0d64000400000000000000000000007f
:020000040000fa
:0200000401f009
:04000000ffffff00ff
:020000040000fa
:0200000401f009
:04000400ffffff00fb
:020000040000fa
:0200000401f009
:04000800ffffff00f7
:020000040000fa
:0200000401f009
:04000c0002000000ee
:020000040000fa
:0200000401f009
:0400100005000000e7
:020000040000fa
:0200000401f009
:040014005f00000089
:020000040000fa
:0200000401f009
:04001800f7000000ed
:020000040000fa
:0200000401f009
:04001c00dfff000002
:00000001FF
